:100000000C94B5000C94D2000C94D2000C945509B9
:100010000C94D2000C94D2000C94D2000C94F007F3
:100020000C94D2000C94D2000C94D2000C94D20008
:100030000C94D2000C94D2000C94D2000C94D200F8
:100040000C94D2000C94D2000C94D2000C94D200E8
:100050000C94D2000C94D2000C94D2000C94D200D8
:100060000C94D2000C94D2006E616E00696E660032
:1000700000407A10F35A00A0724E18090010A5D45F
:10008000E80000E87648170000E40B54020000CABC
:100090009A3B000000E1F505000080969800000002
:1000A00040420F000000A086010000001027000061
:1000B0000000E803000000006400000000000A00E7
:1000C000000000000100000000002C76D888DC67EA
:1000D0004F0823DFC1DFAE59E1B1B796E5E3E45342
:1000E000C63AE651997696E8E6C28426EB898C9B5F
:1000F00062ED407C6FFCEFBC9C9F40F2BAA56FA5FF
:10010000F490055A2AF75C936B6CF9676DC11BFC80
:10011000E0E40D47FEF520E6B500D0ED902E03009B
:10012000943577050080841E080000204E0A0000E8
:1001300000C80C333333330F986E12831141EF8DA7
:100140002114893BE65516CFFEE6DB18D1844B38E7
:100150001BF77C1D901DA4BBE424203284725E2218
:100160008100C9F124ECA1E53D2711241FBECFEF8A
:10017000D8E0DEBFCDBF12E0A0E0B1E0E8E5FBE2F1
:1001800002C005900D92A837B107D9F712E0A8E791
:10019000B2E001C01D92A739B107E1F70E945D03EB
:1001A0000C94AA150C94000080E090E040E050E030
:1001B00060E070E021E030E00E94A10981E090E081
:1001C00040E050E060E070E021E030E00E94A109F2
:1001D0000895EF92FF920F931F937B018C0120E013
:1001E00030E040E050E00E94961188235CF40F2E2E
:1001F000F0E0EF2EF0E0FF2EF0E00F2FF0E01F2FE9
:10020000F02D14C0C801B70120E030E040E85FE302
:100210000E94E012181654F40F2EF0E0EF2EF0E0DA
:10022000FF2EF0E80F2FFFE31F2FF02D80E090E06E
:10023000B801A7012FEF3FEF0E94A10981E090E0F4
:10024000B801A70121E030E00E94A1091F910F91A0
:10025000FF90EF900895AF92BF92CF92DF92EF920E
:10026000FF920F931F937B018C0159016A0120E0DB
:1002700030E040E050E00E94961188235CF40F2E9D
:10028000F0E0EF2EF0E0FF2EF0E00F2FF0E01F2F58
:10029000F02D14C0C801B70120E030E040E85FE372
:1002A0000E94E012181654F40F2EF0E0EF2EF0E04A
:1002B000FF2EF0E80F2FFFE31F2FF02DC601B50131
:1002C00020E030E040E050E00E94961188235CF48A
:1002D0000F2EF0E0AF2EF0E0BF2EF0E0CF2EF0E0DA
:1002E000DF2EF02D14C0C601B50120E030E040E85B
:1002F0005FE30E94E012181654F40F2EF0E0AF2EC8
:10030000F0E0BF2EF0E8CF2EFFE3DF2EF02D80E0EF
:1003100090E0B801A70121E030E00E94A10981E04E
:1003200090E0B601A50121E030E00E94A1091F91F3
:100330000F91FF90EF90DF90CF90BF90AF90089516
:100340005F926F927F928F929F92AF92BF92CF9265
:10035000DF92EF92FF920F931F93542E20E030E034
:1003600040EA50E40E94311120E030E040E05FE3D9
:100370000E94E4127B018C016091860270918702D9
:10038000809188029091890220E030E040E05FE3B4
:100390000E94E4129B01AC01C801B7010E94321116
:1003A00060938602709387028093880290938902FB
:1003B0002AE037ED43EA5CE30E94E4125B016C0142
:1003C0002AE037ED43EA5DE30E94E01218165CF480
:1003D0000F2EFAE0AF2EF7EDBF2EF3EACF2EFDE39E
:1003E000DF2EF02D14C0C601B5012AE037ED43EA37
:1003F0005DEB0E949611882354F40F2EFAE0AF2E85
:10040000F7EDBF2EF3EACF2EFDEBDF2EF02D5520BA
:1004100059F00F2EF8EBEF2EFEE1FF2EF5E80F2F2F
:10042000FEE31F2FF02D0AC00F2EFDECEF2EFCEC8B
:10043000FF2EFCE40F2FFEE31F2FF02DC801B701A4
:10044000A60195010E9431113B014C01C801B70181
:10045000A60195010E9432117B018C01C401B301F8
:100460002FE832EC45EF5DE30E949611882354F4A7
:100470000F2EFFE86F2EF2EC7F2EF5EF8F2EFDE3AF
:100480009F2EF02DC801B7012FE832EC45EF5DE358
:100490000E949611882354F40F2EFFE8EF2EF2EC01
:1004A000FF2EF5EF0F2FFDE31F2FF02DC401B30139
:1004B00023E333E343EB5EE30E94E012181654F4A7
:1004C0000F2EF3E36F2EF3E37F2EF3EB8F2EFEE37D
:1004D0009F2EF02DC801B70123E333E343EB5EE326
:1004E0000E94E012181654F40F2EF3E3EF2EF3E3FC
:1004F000FF2EF3EB0F2FFEE31F2FF02DC401B301EE
:10050000A80197010E942B01552019F428EC30E036
:1005100002C024EF31E080E090E040EA5FE0FA01C1
:100520003197F1F7019682179307C8F30E94D40020
:100530001F910F91FF90EF90DF90CF90BF90AF9001
:100540009F908F907F906F905F900895EF92FF92B1
:100550000F931F937B018C0120E030E040E050E0DE
:100560000E94961188235CF40F2EF0E0EF2EF0E04D
:10057000FF2EF0E00F2FF0E01F2FF02D14C0C80168
:10058000B70120E030E040E85FE30E94E012181677
:1005900054F40F2EF0E0EF2EF0E0FF2EF0E80F2FD6
:1005A000FFE31F2FF02D80E090E0B801A70121E0CC
:1005B00030E00E94A10981E090E0B801A7012FEF8F
:1005C0003FEF0E94A1091F910F91FF90EF900895B6
:1005D0006BE774E18EE29EE30E94A60280E090E069
:1005E00020EA3FE0F9013197F1F70196863991054C
:1005F000C9F70E94D40084EF91E020E931E0F901CD
:100600003197F1F70197D9F76FE872EC85EF9DE329
:100610009B01AC010E942B0180E090E020EA3FE0CA
:10062000F9013197F1F7019686399105C9F70E94D2
:10063000D40088EE93E020E931E0F9013197F1F739
:100640000197D9F76EEA77E481E69EE39B01AC015E
:100650000E942B0180E090E020EA3FE0F901319711
:10066000F1F70196883C9105C9F70E94D4000895DE
:10067000EF92FF920F931F930E9456087B018C010B
:1006800020E030E040E050E40E94E012882354F083
:10069000B701C80120E030E048EC52E40E94961116
:1006A000181624F4EE24FF2400E010E0B701C8017E
:1006B0001F910F91FF90EF9008952F923F924F92CC
:1006C0005F926F927F928F929F92AF92BF92CF92E2
:1006D000DF92EF92FF920F931F93DF93CF93CDB7EB
:1006E000DEB7C657D0400FB6F894DEBF0FBECDBF01
:1006F0000E9496090E9448080E94B20A0E94E107DF
:1007000080E895E20E94DB0A8EE591E00E94CA0A29
:1007100080E197E220E931E0F9013197F1F70197A3
:10072000D9F778940E94D40088E893E120E931E079
:10073000F9013197F1F70197D9F7CC24DD2480E056
:1007400090E0A0E0B0E0E1968CAF9DAFAEAFBFAF60
:10075000E197222491E0C916D10409F493C0A1E0E5
:10076000CA16D10430F0B2E0CB16D10409F084C32C
:1007700090C30E94D4008EE591E00E94CA0A8CEDDD
:1007800095E0E0E9F1E03197F1F70197D1F70E94A8
:1007900038037B018C01EDB7FEB73A970FB6F8949A
:1007A000FEBF0FBEEDBF31962DE230E02C0F3D1F96
:1007B000ADB7BEB712963C932E93119780E490E0AC
:1007C0009383828380E091E095838483E682F7823D
:1007D000008711870E941B15ADB7BEB71A960FB6DA
:1007E000F894BEBF0FBEADBFCE018D960E94060B22
:1007F000C801B70120E030E040E051E40E949611CA
:1008000088230CF0C2C3C801B70120E030E040E00B
:1008100050E00E94E01218160CF0B7C38EE091E091
:100820000E94060B60E070E080E89EE30E94E90011
:1008300080E090E0E0EAFFE03197F1F70196B1E067
:100840008C329B07B9F70E94D40084EF91E0E0E975
:10085000F1E03197F1F70197D1F76FE872EC85EF8E
:100860009DE39B01AC010E942B0180E090E0E0EA57
:10087000FFE03197F1F7019686399105C1F70E94A3
:10088000D40086C386E990E00E94CA0A8CED95E008
:10089000E0E9F1E03197F1F70197D1F75524CC2445
:1008A000DD240E9456087B018C0120E030E040E00E
:1008B00050E40E94E01288230CF44DC0C801B70137
:1008C00020E030E048EC52E40E94961118160CF437
:1008D00042C0E52DF0E0EE0FFF1FEE0FFF1F21E0FD
:1008E00030E02C0F3D1FE20FF31FE082F182028304
:1008F000138353948DB79EB70C970FB6F8949EBF91
:100900000FBE8DBFEDB7FEB731962DE030E02C0F56
:100910003D1FADB7BEB712963C932E93119780E260
:1009200090E093838283A5E2B1E0B583A483D7826C
:10093000C682E086F186028713870E941B15EDB7F9
:10094000FEB73C960FB6F894FEBF0FBEEDBFCE01CA
:100950000D960E94060BF2E0CF1621F080E49CE990
:100960000197F1F70894C11CD11C23E0C216D104F1
:1009700009F097CF552009F4DDC032E0351568F451
:100980003324852D90E0E5969FAF8EAFE5970197D4
:10099000E7969FAF8EAFE79774C05E010894A11CE5
:1009A000B11C0F2EF0E0CF2EF0E0DF2EF0E0EF2EA6
:1009B000F0E0FF2EF02D5A94052D10E053940F5FB8
:1009C0001F4F000F111F000F111F0A0D1B1DC70124
:1009D000B601F50121913191419151915F010E9440
:1009E00032116B017C01A016B10689F7652D70E00C
:1009F000882777FD8095982F0E9430129B01AC01CB
:100A0000C701B6010E949A1178C05C01AA0CBB1CF8
:100A1000AA0CBB1C21E030E02C0F3D1FA20EB31E20
:100A2000D5016D907D908D909C908C010F5F1F4F34
:100A3000000F111F000F111F020F131FF801C080BC
:100A4000D180E280F380C401B301A70196010E9426
:100A5000E01218165CF4D501CD92DD92ED92FC9275
:100A60001397F80160827182828293824394842D6D
:100A700090E0E3962EAD3FADE397821793072CF2FB
:100A80003394832D90E0E796AEADBFADE7978A171C
:100A90009B0744F44424A81BB90BE396BFAFAEAF49
:100AA000E397E5CF652D6695E496BFADE497B0FD7D
:100AB00027C0A62FB0E0FD013197EE0FFF1FEE0F0C
:100AC000FF1F21E030E02C0F3D1FE20FF31FAA0FA4
:100AD000BB1FAA0FBB1FA20FB31F60817181828150
:100AE00093812D913D914D915C910E94321120E0B6
:100AF00030E040E05FE30E94E4123B014C0110C093
:100B0000E62FF0E0EE0FFF1FEE0FFF1F81E090E0F9
:100B10008C0F9D1FE80FF91F608071808280938089
:100B2000C401B30120E030E040E050E00E949611A3
:100B3000882371F5809178028F5F8093780288E333
:100B400091E00E94060B80917802833050F08FE490
:100B500091E00E94060B1092780232E0C32ED12C55
:100B600009C284EF91E0E0E9F1E03197F1F70197F4
:100B7000D1F70E9438033B014C0120E030E040E017
:100B800050E00E949611882329F40E94E80274C163
:100B900010927802C401B30120E030E040E050E060
:100BA0000E949611882309F48BC08091790290E00D
:100BB000FC01EE0FFF1FEE0FFF1FE658FD4F608296
:100BC000718282829382019663E070E00E946613D4
:100BD00080937902E0907A02F0907B0200917C028F
:100BE00010917D02C801B70120E030E040E050E004
:100BF0000E94E012181664F055240F2EF0E0EF2E3C
:100C0000F0E0FF2EF0E00F2FF0E01F2FF02D0CC0D2
:100C1000C801B70120E030E040E050E00E9432110E
:100C20007B018C0155245394A0907E02B0907F02EA
:100C3000C0908002D0908102C601B50120E030E072
:100C400040E050E00E94E01218164CF4C801B701D1
:100C5000A60195010E9432117B018C015394A09052
:100C60008202B0908302C0908402D0908502C601B7
:100C7000B50120E030E040E050E00E94E01218169C
:100C80004CF4C801B701A60195010E9432117B0105
:100C90008C0153945520A1F0652D70E0882777FDD5
:100CA0008095982F0E9430129B01AC01C801B701BA
:100CB0000E949A11AC01CB01DA017C018D0102C0C6
:100CC000840173018EE591E00E94CA0A8EEE92E0E3
:100CD000E0E9F1E03197F1F70197D1F7ADB7BEB791
:100CE0001E970FB6F894BEBF0FBEADBFEDB7FEB7EF
:100CF00031962DE230E02C0F3D1F12963C932E933F
:100D0000119780E490E0938382838CE791E0958350
:100D10008483E682F78200871187628673868486E1
:100D200095860E941B15ADB7BEB71E960FB6F894F8
:100D3000BEBF0FBEADBFCE018D960E94060BDD2457
:100D4000C801B70120E030E040E050E00E94E0122E
:100D5000181664F4DD24D394C801B70120E030E014
:100D600040E450E40E94961187FD3FC0C801B701DE
:100D700020E030E040E451E40E94E01218169CF1BB
:100D800010C1C801B70120E030E040E050E00E940F
:100D90009611882341F1C801B701E1962CAD3DAD14
:100DA0004EAD5FADE1970E94E01218164CF4C801F9
:100DB000B701E1962CAD3DAD4EAD5FADE19708C0FA
:100DC000E1966CAD7DAD8EAD9FADE197A801970129
:100DD0000E94311120E030E040E85FE30E94E01221
:100DE00018160CF04CC0DD2059F1C801B70120E005
:100DF00030E040E450E40E94961188230CF588E925
:100E000091E00E94060B60E070E080E090E00E94BC
:100E1000E9006FE872EC85EF9DE32BE734E14EE2E9
:100E20005EE30E942B0180E090E0E0EAFFE0319772
:100E3000F1F7019686399105C1F70E94D40016C0DA
:100E4000C801B70120E030E040E451E40E94E01224
:100E500018163CF482EB91E00E94060B0E94E80217
:100E600005C0C801B70141E00E94A001E196ECAEC7
:100E7000FDAE0EAF1FAFE197CC24DD2489C084EC1A
:100E800091E00E94060BC801B70141E00E94A00159
:100E9000F3CF8DEE91E00E94060B0E94D40088EE05
:100EA00093E0E0E9F1E03197F1F70197D1F76FE8CE
:100EB00072EC85EF9DE30E94A60280E090E0E0EAFC
:100EC000FFE03197F1F7019686399105C1F70E944D
:100ED000D40088EE93E0E0E9F1E03197F1F7019773
:100EE000D1F76FE872EC85EF9DE39B01AC010E94A6
:100EF0002B0180E090E0E0EAFFE03197F1F7019606
:100F000084369105C1F70E94D40086E990E00E94E2
:100F1000CA0A8CED95E0E0E9F1E03197F1F701972D
:100F2000D1F70E943803162F072FF82EE92E20E064
:100F300030E040E050E00E94E01218168CF487E1A7
:100F400092E00E94060B10927802812F902FAF2D15
:100F5000BE2DE1968CAF9DAFAEAFBFAFE1978CCF0A
:100F60002394B2E0B21540F488E292E00E94060BAE
:100F7000CC24DD2422240CC084EF91E0E0E9F1E0F0
:100F80003197F1F70197D1F703C081E0C82ED12C3A
:100F900088EE93E0E0E9F1E03197F1F70197D1F7BE
:100FA000D9CBE1966CAD7DAD8EAD9FADE19720E0E4
:100FB00030E040E050E00E949611882309F413CFFE
:100FC000E0CE82E08093B00084E08093B10089EFAE
:100FD0008093B300E0E7F0E0808182608083089531
:100FE0001F920F920FB60F9211248F939F93AF937E
:100FF000BF9380918A0290918B02A0918C02B09154
:101000008D020196A11DB11D80938A0290938B02DF
:10101000A0938C02B0938D02BF91AF919F918F915D
:101020000F900FBE0F901F9018958FB7F8942091D6
:101030008A0230918B0240918C0250918D028FBFB9
:10104000B901CA0108951F932FB7F89460918A02DD
:1010500070918B0280918C0290918D021091B20060
:101060002FBF2AEF30E040E050E00E9447139B0181
:10107000AC01210F311D411D511D82E0220F331F94
:10108000441F551F8A95D1F7B901CA011F910895D0
:10109000249A25982C98E8E6F0E08081816080838E
:1010A000EBE6F0E08081806280830895EF92FF920A
:1010B0000F931F932C9A85E38A95F1F72C980E9441
:1010C00023087B018C0110928E020BC00E94230822
:1010D0006E197F09800B910B6153754780409040DA
:1010E000B0F580918E02882389F360918F02709110
:1010F00090028091910290919202209193023091FE
:1011000094024091950250919602621B730B840BDE
:10111000950B0E942E1228E23EE74CE05DE30E9410
:10112000E41220E030E040E05FE30E94E4122CE5AE
:101130003FE842E250E40E949A117B018C0120E0DA
:1011400030E04DEB52E40E94E012181654F40F2EDA
:10115000F0E0EF2EF0E0FF2EF0E00F2FF0E01F2F79
:10116000F02DB701C8011F910F91FF90EF900895E6
:10117000AF92BF92CF92DF92EF92FF920F931F93A5
:10118000DF93CF93CDB7DEB7C054D0400FB6F894FD
:10119000DEBF0FBECDBF2C9A85E38A95F1F72C9860
:1011A0008CE291E020E931E0F9013197F1F7019704
:1011B000D9F70E94560820E030E048EC52E40E9443
:1011C000E4120E9402127B018C018DB79EB70E972C
:1011D0000FB6F8949EBF0FBE8DBFCDB6DEB6089495
:1011E000C11CD11C5E010894A11CB11CEDB7FEB757
:1011F000B282A18280E490E0F6019383828381E54C
:1012000092E095838483B701C80124E630E040E092
:1012100050E00E947913F601268337834087518777
:10122000B701C80124E630E040E050E00E947913A5
:10123000F60162877387848795870E941B158DB797
:101240009EB70E960FB6F8949EBF0FBE8DBFC50118
:101250000E94060BC05CDF4F0FB6F894DEBF0FBED6
:10126000CDBFCF91DF911F910F91FF90EF90DF9055
:10127000CF90BF90AF9008950E94CA0A80ED97E08A
:1012800020E931E0F9013197F1F70197D9F70E9490
:10129000560888E592E020E931E0F9013197F1F74D
:1012A0000197D9F70E94560808951F920F920FB622
:1012B0000F9211242F933F934F935F936F937F93DC
:1012C0008F939F93AF93BF93EF93FF931D9B0BC09F
:1012D0000E94230860939302709394028093950276
:1012E000909396020DC00E94230860938F02709322
:1012F0009002809391029093920281E080938E02FB
:10130000FF91EF91BF91AF919F918F917F916F91DD
:101310005F914F913F912F910F900FBE0F901F90B3
:101320001895529A559A549A569A08950E9491097E
:1013300093E094BD84B5806A84BD95BD17BC18BC8C
:101340000895CF92DF92EF92FF920F931F93CF9366
:10135000DF93EC017A018B016901CB01BA0120E036
:1013600030E040E050E00E94961188235CF40F2E9C
:10137000F0E0EF2EF0E0FF2EF0E00F2FF0E01F2F57
:10138000F02D14C0C801B70120E030E040E85FE371
:101390000E94E012181654F40F2EF0E0EF2EF0E049
:1013A000FF2EF0E80F2FFFE31F2FF02DC801B7012C
:1013B00020E030E048E453E40E94E4120E9402126C
:1013C000693C08F068EC209749F468BD81E0C816D4
:1013D000D10411F45A9A0CC05A980AC0219741F4CA
:1013E00067BD81E0C816D10411F45C9801C05C9A15
:1013F000DF91CF911F910F91FF90EF90DF90CF90F1
:1014000008952F923F924F925F926F927F928F92A8
:101410009F92AF92BF92CF92DF92EF92FF920F9383
:101420001F931B012C0139014A01C8010E94CA0AFD
:1014300080E293E020E931E0F9013197F1F701977B
:10144000D9F70E9456088CE291E020E931E0F901D9
:101450003197F1F70197D9F70E9456087B018C016B
:1014600020E030E040E050E00E949611181654F45D
:10147000C801B70124EF39EF4CE351E40E94E012B8
:10148000181614F484017301C801B701A401930173
:101490000E949A119B01AC01C201B1010E94E412A9
:1014A0005B016C01C401B301A80197010E949A116C
:1014B0009B01AC01C201B1010E94E4127B018C01CD
:1014C000C601B50120E030E040E85FE30E94E01291
:1014D000181654F40F2EF0E0AF2EF0E0BF2EF0E817
:1014E000CF2EFFE3DF2EF02DC801B70120E030E062
:1014F00040E85FE30E94E012181654F40F2EF0E06B
:10150000EF2EF0E0FF2EF0E80F2FFFE31F2FF02D5E
:1015100080E090E0B601A50121E030E00E94A10941
:1015200081E090E0B801A70121E030E00E94A1092C
:1015300080E991E020E931E0F9013197F1F7019775
:10154000D9F71F910F91FF90EF90DF90CF90BF9050
:10155000AF909F908F907F906F905F904F903F9053
:101560002F900895229A83E280938000E1E8F0E0D2
:1015700088E1808380818360808387E893E1909312
:101580008900809388008EE591E090938B00809392
:101590008A000895863991051CF486E990E006C01A
:1015A00022E08237920714F081E792E090938B005B
:1015B00080938A0008959C0140E050E060E472E46A
:1015C0008FE090E00E949B13215030403093C50083
:1015D0002093C40088E18093C1008EE08093C20014
:1015E0000895982F8091C00085FFFCCF9093C6008E
:1015F0000895FC0107C08091C00085FFFCCF3196A3
:101600009093C60090819923B1F708950E94F90A3A
:101610008091C00085FFFCCF8DE08093C600809153
:10162000C00085FFFCCF8AE08093C6000895EF924A
:10163000FF920F931F9380E090E040E050E060E065
:1016400070E021E030E00E94A10981E090E040E0FC
:1016500050E060E070E021E030E00E94A10984EFFA
:1016600091E020E931E0F9013197F1F70197D9F7DD
:1016700060916C0270916D0280916E0290916F0288
:101680002AE939E949E95EE30E9432117B018C01C4
:1016900080E090E0A701B8012FEF3FEF0E94A10981
:1016A00081E090E0A701B80121E030E00E94A109AB
:1016B00088EB9BE020E931E0F9013197F1F70197E0
:1016C000D9F780E090E040E050E060E070E021E099
:1016D00030E00E94A10981E090E040E050E060E04D
:1016E00070E021E030E00E94A1091F910F91FF906E
:1016F000EF900895409174025091750260917602C6
:101700007091770280E090E02FEF3FEF0E94A109F7
:101710004091740250917502609176027091770247
:1017200081E090E02FEF3FEF0E94A10984E991E171
:1017300020E931E0F9013197F1F70197D9F780E01D
:1017400090E040E050E060E070E021E030E00E9496
:10175000A10981E090E040E050E060E070E021E02D
:1017600030E00E94A10984EF91E020E931E0F90125
:101770003197F1F70197D9F74091740250917502B2
:10178000609176027091770280E090E021E030E095
:101790000E94A109409174025091750260917602F5
:1017A0007091770281E090E02FEF3FEF0E94A10956
:1017B00088E893E120E931E0F9013197F1F70197E9
:1017C000D9F781E090E040E050E060E070E02FEF7A
:1017D0003FEF0E94A10980E090E040E050E060E02F
:1017E00070E02FEF3FEF0E94A10980ED97E020E924
:1017F00031E0F9013197F1F70197D9F7409174027F
:1018000050917502609176027091770280E090E0CD
:101810002FEF3FEF0E94A109409174025091750291
:10182000609176027091770281E090E02FEF3FEFB8
:101830000E94A10984E991E120E931E0F9013197A1
:10184000F1F70197D9F781E090E040E050E060E0E7
:1018500070E02FEF3FEF0E94A10980E090E040E0B0
:1018600050E060E070E02FEF3FEF0E94A10980EDB3
:1018700097E020E931E0F9013197F1F70197D9F7C5
:1018800008954091740250917502609176027091B2
:10189000770280E090E021E030E00E94A1094091D1
:1018A000740250917502609176027091770281E026
:1018B00090E02FEF3FEF0E94A10988EB9BE020E929
:1018C00031E0F9013197F1F70197D9F780E090E025
:1018D00040E050E060E070E021E030E00E94A109CB
:1018E00081E090E040E050E060E070E021E030E036
:1018F0000E94A10988E893E120E931E0F9013197DC
:10190000F1F70197D9F740917402509175026091F7
:1019100076027091770281E090E021E030E00E9451
:10192000A109409174025091750260917602709104
:10193000770280E090E021E030E00E94A10980E49D
:101940009FE120E931E0F9013197F1F70197D9F7EB
:1019500080E090E040E050E060E070E021E030E0C6
:101960000E94A10981E090E040E050E060E070E07A
:1019700021E030E00E94A10988E893E120E931E00C
:10198000F9013197F1F70197D9F74091740250911D
:101990007502609176027091770280E090E02FEFFF
:1019A0003FEF0E94A109409174025091750260912D
:1019B00076027091770281E090E021E030E00E94B1
:1019C000A10988EB9BE020E931E0F9013197F1F7BB
:1019D0000197D9F781E090E040E050E060E070E0EE
:1019E0002FEF3FEF0E94A10980E090E040E050E03F
:1019F00060E070E02FEF3FEF0E94A10988E893E1DB
:101A000020E931E0F9013197F1F70197D9F708950D
:101A100081E090E040E050E060E070E02FEF3FEFC9
:101A20000E94A10980E090E040E050E060E070E0BA
:101A30002FEF3FEF0E94A10988E893E120E931E010
:101A4000F9013197F1F70197D9F74091740250915C
:101A50007502609176027091770280E090E021E05B
:101A600030E00E94A109409174025091750260918A
:101A700076027091770281E090E02FEF3FEF0E94B5
:101A8000A10988EB9BE020E931E0F9013197F1F7FA
:101A90000197D9F781E090E040E050E060E070E02D
:101AA0002FEF3FEF0E94A10980E090E040E050E07E
:101AB00060E070E02FEF3FEF0E94A10988E893E11A
:101AC00020E931E0F9013197F1F70197D9F7409119
:101AD000740250917502609176027091770281E0F4
:101AE00090E021E030E00E94A10940917402509101
:101AF0007502609176027091770280E090E021E0BB
:101B000030E00E94A10980E49FE120E931E0F90181
:101B10003197F1F70197D9F780E090E040E050E08D
:101B200060E070E021E030E00E94A10981E090E0F7
:101B300040E050E060E070E021E030E00E94A10968
:101B400088E893E120E931E0F9013197F1F7019755
:101B5000D9F70895A1E1B0E0E0EBFDE00C94B613F5
:101B60003C017F876E876A01FC01178216828381A0
:101B700081FD03C06FEF7FEF6FC39E012F5F3F4F6B
:101B8000398B288BF3012381EE85FF8523FD859119
:101B900023FF8191FF87EE87882309F45AC385329A
:101BA00051F4EE85FF8523FD859123FF8191FF8709
:101BB000EE87853229F490E0B3010E94EF14E2CF62
:101BC000982F10E0882499241032B0F49B3269F0E9
:101BD0009C3228F4903251F0933271F40BC09D3254
:101BE00039F0903349F4116028C01260146025C0A8
:101BF000186023C0106121C017FD2AC0892F8053AF
:101C00008A3078F416FF06C0FAE09F9E902C1124CB
:101C1000980E13C03AE0839E802C1124880E106227
:101C20000CC09E3221F416FD14C3106406C09C360D
:101C300011F4106802C0983659F4EE85FF8523FD33
:101C4000959123FF9191FF87EE87992309F0BCCFEF
:101C5000892F8554833020F4812F8061905E07C0E6
:101C6000892F8556833008F09FC1812F8F7E86FD96
:101C700002C076E0972E6FE3F62EF822953619F41F
:101C8000F0E4FF2A07C0963619F420E8F22A02C0D1
:101C900091109A94F7FE0AC03BE3391518F45CE3FF
:101CA000B52E02C0B92CB39427E009C047E049150E
:101CB00020F4BB2447E0942EF7CF292DBB24C60186
:101CC00004969D878C87F601608171818281938162
:101CD000AE014F5F5F4F0B2D0E9401146C01098113
:101CE000202E332400FF04C003FD02C01DE209C002
:101CF000F1FE02C01BE205C0F2FC02C010E001C010
:101D000010E2C1018C709070892BB9F1112311F48C
:101D100083E001C084E0881510F088240AC0881A86
:101D2000F3FC07C080E290E0B3010E94EF148A94B4
:101D3000C9F7112329F0812F90E0B3010E94EF141D
:101D400023FE03C008E610E00EC00CE610E00BC056
:101D5000E114F10409F0805290E0B3010E94EF1405
:101D60000F5F1F4F05C0EF2CFF24F0E1EF22FF248F
:101D7000F8018491882361F714C1F7FE12C0BC0CEE
:101D800024FE04C08A81813309F4BA941B141CF028
:101D9000BB24B3942DC0F8E0FB1550F538E0B32E0A
:101DA00027C0F6FC25C0892D90E08C159D054CF0D0
:101DB0002CEFC2162FEFD20624F030E8F32A01C030
:101DC0009A94992049F0E2E0F0E0EC0FFD1FE90D54
:101DD000F11D80818033A1F3F7FE0AC0B92CB394C2
:101DE000892D90E0C816D90614F0992401C09C18DA
:101DF000F7FC03C025E030E009C01C141D041CF0F2
:101E000021E030E003C096012F5F3F4F112311F016
:101E10002F5F3F4F992029F0892D90E00196280FE0
:101E2000391F882D90E02817390714F0882401C045
:101E3000821A4F2C5524C20189709070892B39F079
:101E400008C080E290E0B3010E94EF148A948820D9
:101E5000C1F7112329F0812F90E0B3010E94EF1404
:101E600043FE07C008C080E390E0B3010E94EF1476
:101E70008A948820C1F7F7FE46C08601D7FE02C0CB
:101E800000E010E076010894E11CF11CE01AF10A70
:101E900041E050E04C0F5D1FE40EF51E26014B188B
:101EA0005108892D90E0AA24BB24A81AB90A5FEF33
:101EB0000F3F150729F48EE290E0B3010E94EF1462
:101EC000C016D10634F0401651061CF4F70180818B
:101ED00001C080E3015010400894E11CF11C0A1578
:101EE0001B052CF090E0B3010E94EF14E0CF0C151D
:101EF0001D0539F49A81963318F4953311F424FEB4
:101F000081E390E04BC08A81813309F00F7E90E03D
:101F1000B3010E94EF149920A1F08EE290E0B3018A
:101F20000E94EF1412E0E1E0F0E0EC0FFD1FE10F82
:101F3000F11D1F5F808190E0B3010E94EF149A941D
:101F400091F744FC03C085E690E002C085E490E090
:101F5000B3010E94EF14D7FC05C0C114D10441F4B1
:101F600004FF06C0D094C194D108D3948DE201C07F
:101F70008BE290E0B3010E94EF1480E305C08F5F15
:101F800026EF3FEFC20ED31E3AE0C316D104BCF7D2
:101F900090E0B3010E94EF14C601C096B3010E9405
:101FA000EF14CC84DD8452C1933631F0933799F02D
:101FB000933509F059C023C0F601808189835E0101
:101FC0000894A11CB11C22E030E0C20ED31E21E017
:101FD000E22EF12C12C0F601A080B18016FD03C0E4
:101FE0006FEF7FEF02C0692D70E022E030E0C20E9B
:101FF000D31EC5010E94E4147C011F7713C0F601B3
:10200000A080B18016FD03C06FEF7FEF02C0692D85
:1020100070E022E030E0C20ED31EC5010E94D91448
:102020007C01106813FF07C01BC080E290E0B30181
:102030000E94EF148A94882D90E0E816F906A8F320
:102040000FC0F50117FD859117FF81915F0190E0A9
:10205000B3010E94EF1481108A940894E108F108FA
:10206000E114F10471F7F2C0943611F0993689F554
:1020700017FF08C0F601208131814281538184E03D
:1020800090E00AC0F601808191819C01442737FDD0
:102090004095542F82E090E0C80ED91E9FE6F92E9D
:1020A000F12257FF09C050954095309521953F4F3B
:1020B0004F4F5F4F90E8F92ACA01B901AE014F5F57
:1020C0005F4F2AE030E00E944C15E82EE889EE1AB6
:1020D00041C0953721F41F7E2AE030E01CC0197FF3
:1020E0009F3661F0903720F4983509F0B2C00FC0E8
:1020F000903739F0983709F0ACC004C028E030E0E0
:102100000AC0106114FD146020E130E004C014FD29
:10211000166020E132E017FF08C0F601608171818E
:102120008281938144E050E008C0F6018081918172
:10213000BC0180E090E042E050E0C40ED51EAE014C
:102140004F5F5F4F0E944C15E82E5889E51A8FE7C4
:10215000F82EF122F6FE0BC08EEFF822E91438F4C7
:10216000F4FE07C0F2FC05C09FEEF92202C01E2D4E
:1021700001C0192DF4FE0DC0FE01EE0DF11D808190
:10218000803319F4E9EEFE2208C01F5FF2FE05C09D
:1021900003C08F2D867809F01F5F0F2DF3FC14C04C
:1021A000F0FE0FC0181510F09E2C0BC09E2C980C42
:1021B000911A182D06C080E290E0B3010E94EF143E
:1021C0001F5F1815C0F304C0181510F4811A01C060
:1021D000882404FF0FC080E390E0B3010E94EF1455
:1021E00002FF1DC001FD03C088E790E00EC088E536
:1021F00090E00BC0802F867891F001FF02C08BE247
:1022000001C080E2F7FC8DE290E0B3010E94EF1480
:1022100006C080E390E0B3010E94EF149A94E914A1
:10222000C0F3EA94E1E0F0E0EC0FFD1FEE0DF11DCC
:10223000808190E0B3010E94EF14EE2091F706C078
:1022400080E290E0B3010E94EF148A948820C1F7E5
:1022500099CCF30166817781CB016196E2E10C9420
:10226000D2135058BB27AA270ED070C161D130F0CD
:1022700066D120F031F49F3F11F41EF456C10EF4E4
:10228000E095E7FB4CC1E92F72D180F3BA176207E2
:1022900073078407950718F071F49EF58AC10EF450
:1022A000E0950B2EBA2FA02D0B01B90190010C0166
:1022B000CA01A0011124FF27591B99F0593F50F47E
:1022C000503E68F11A16F040A22F232F342F4427D6
:1022D000585FF3CF469537952795A795F0405395CE
:1022E000C9F77EF41F16BA0B620B730B840BBAF09E
:1022F0009150A1F0FF0FBB1F661F771F881FC2F709
:102300000EC0BA0F621F731F841F48F4879577951C
:102310006795B795F7959E3F08F0B3CF9395880FD3
:1023200008F09927EE0F979587950895D4D008F473
:1023300081E008950CD00AC102D140F0F9D030F00C
:1023400021F45F3F19F0EBC0511134C1EEC00FD141
:1023500098F39923C9F35523B1F3951B550BBB276C
:10236000AA2762177307840738F09F5F5F4F220F19
:10237000331F441FAA1FA9F333D00E2E3AF0E0E812
:1023800030D091505040E695001CCAF729D0FE2F5E
:1023900027D0660F771F881FBB1F261737074807F0
:1023A000AB07B0E809F0BB0B802DBF01FF279358A6
:1023B0005F4F2AF09E3F510568F0B1C0FBC05F3F00
:1023C000ECF3983EDCF3869577956795B795F7958E
:1023D0009F5FC9F7880F911D9695879597F9089586
:1023E000E1E0660F771F881FBB1F62177307840722
:1023F000BA0720F0621B730B840BBA0BEE1F88F731
:10240000E0950895BCD088F09F5790F0B92F992798
:10241000B751A0F0D1F0660F771F881F991F1AF0EF
:10242000BA95C9F712C0B13081F0C3D0B1E00895B8
:10243000C0C0672F782F8827B85F39F0B93FCCF339
:10244000869577956795B395D9F73EF490958095E5
:10245000709561957F4F8F4F9F4F0895E89409C005
:1024600097FB3EF490958095709561957F4F8F4FC7
:102470009F4F9923A9F0F92F96E9BB279395F695DD
:10248000879577956795B795F111F8CFFAF4BB0F5B
:1024900011F460FF1BC06F5F7F4F8F4F9F4F16C0BF
:1024A000882311F096E911C0772321F09EE8872F49
:1024B000762F05C0662371F096E8862F70E060E005
:1024C0002AF09A95660F771F881FDAF7880F96957E
:1024D000879597F90895990F0008550FAA0BE0E822
:1024E000FEEF16161706E807F907C0F012161306D6
:1024F000E407F50798F0621B730B840B950B39F416
:102500000A2661F0232B242B252B21F408950A267B
:1025100009F4A140A6958FEF811D811D089597F9BB
:102520009F6780E870E060E008959FEF80EC089579
:1025300000240A94161617061806090608950024A2
:102540000A9412161306140605060895092E03941C
:10255000000C11F4882352F0BB0F40F4BF2B11F490
:1025600060FF04C06F5F7F4F8F4F9F4F089557FDEF
:102570009058440F551F59F05F3F71F04795880FF1
:1025800097FB991F61F09F3F79F087950895121688
:1025900013061406551FF2CF4695F1DF08C0161634
:1025A00017061806991FF1CF8695710561050894E5
:1025B0000895E894BB2766277727CB0197F90895FC
:1025C0008ADF08F48FEF08950BD0C0CFB1DF28F079
:1025D000B6DF18F0952309F0A2CFA7CF1124EACFD8
:1025E000C6DFA0F3959FD1F3950F50E0551F629F72
:1025F000F001729FBB27F00DB11D639FAA27F00D5C
:10260000B11DAA1F649F6627B00DA11D661F829F82
:102610002227B00DA11D621F739FB00DA11D621F67
:10262000839FA00D611D221F749F3327A00D611D84
:10263000231F849F600D211D822F762F6A2F112466
:102640009F5750408AF0E1F088234AF0EE0FFF1FB9
:10265000BB1F661F771F881F91505040A9F79E3FF0
:10266000510570F05CCFA6CF5F3FECF3983EDCF3F2
:10267000869577956795B795F795E7959F5FC1F72D
:10268000FE2B880F911D9695879597F90895629F67
:10269000D001739FF001829FE00DF11D649FE00D5A
:1026A000F11D929FF00D839FF00D749FF00D659FBB
:1026B000F00D9927729FB00DE11DF91F639FB00DBA
:1026C000E11DF91FBD01CF011124089597FB092ECB
:1026D00007260AD077FD04D080D006D000201AF457
:1026E000709561957F4F0895F6F7909581959F4F6E
:1026F0000895A1E21A2EAA1BBB1BFD010DC0AA1F43
:10270000BB1FEE1FFF1FA217B307E407F50720F05A
:10271000A21BB30BE40BF50B661F771F881F991FD5
:102720001A9469F760957095809590959B01AC011E
:10273000BD01CF01089597FB092E05260ED057FD48
:1027400004D0D7DF0AD0001C38F45095409530955E
:1027500021953F4F4F4F5F4F0895F6F79095809525
:10276000709561957F4F8F4F9F4F08952F923F92A5
:102770004F925F926F927F928F929F92AF92BF9291
:10278000CF92DF92EF92FF920F931F93CF93DF933D
:10279000CDB7DEB7CA1BDB0B0FB6F894DEBF0FBE9A
:1027A000CDBF09942A88398848885F846E847D84E7
:1027B0008C849B84AA84B984C884DF80EE80FD80E9
:1027C0000C811B81AA81B981CE0FD11D0FB6F8945F
:1027D000DEBF0FBECDBFED010895AA1BBB1B51E1AB
:1027E00007C0AA1FBB1FA617B70710F0A61BB70B81
:1027F000881F991F5A95A9F780959095BC01CD0126
:102800000895283008F027E03327DA01990F311DA9
:1028100087FD916000966105710539F432602E5F85
:102820003D9330E32A95E1F708959F3F30F08038DB
:102830007105610509F03C5F3C5F3D93913008F004
:102840008068911DDF93CF931F930F93FF92EF92B8
:10285000192F987F9695E92F96959695E90FFF2762
:10286000E653FF4F99273327EE24FF24A701E70102
:1028700005900894079428F4360FE71EF81E491FA8
:10288000511D660F771F881F991F0694A1F70590A9
:10289000079428F4E70EF81E491F561FC11D770F35
:1028A000881F991F661F0694A1F70590079428F4C6
:1028B000F80E491F561FC71FD11D880F991F661F8D
:1028C000771F0694A1F70590079420F4490F561F2F
:1028D000C71FD81F990F661F771F881F0694A9F777
:1028E00084911095177041F0D695C79557954795E7
:1028F000F794E7941A95C1F7E0E7F0E06894159033
:10290000159135916591959105907FE27395E11848
:10291000F10A430B560BC90BD009C0F7E10CF11EAD
:10292000431F561FC91FD01D7EF4703311F48A95C2
:10293000E6CFE894015030F0080F0AF400270217A0
:1029400008F4202F2395022F7A3328F079E37D9322
:102950002A95E9F710C07D932A9589F606949795F4
:102960006795379517951794E118F10A430B560BA5
:10297000C90BD00998F023957E9173957A3308F0AE
:1029800070E37C932013B8F77E9170617D9330F0F3
:10299000839571E37D9370E32A95E1F71124EF901D
:1029A000FF900F911F91CF91DF91992787FD90950F
:1029B0000895FC010590615070400110D8F7809592
:1029C00090958E0F9F1F0895FC01615070400190FB
:1029D0000110D8F7809590958E0F9F1F08950F9343
:1029E0001F93CF93DF938C01EB018B8181FF1BC081
:1029F00082FF0DC02E813F818C819D812817390770
:102A000064F4E881F9810193F983E88306C0E885DD
:102A1000F985802F0995892B31F48E819F8101964C
:102A20009F838E8302C00FEF1FEFC801DF91CF910C
:102A30001F910F910895AEE0B0E0E1E2F5E10C9452
:102A4000C4130D891E898F89988D97FF02C080E07D
:102A500090E801979E838D831A83098386E08C8397
:102A60009E01255E3F4FCE010196698D7A8DA901A9
:102A70000E94AA0D4D815E8157FD0AC02F813885C5
:102A8000421753070CF49A01020F131FF80110822A
:102A90002E96E4E00C94E013FA01AA27283051F1B5
:102AA000203181F1E8946F936E7F6E5F7F4F8F4F7F
:102AB0009F4FAF4FB1E03ED0B4E03CD0670F781FDE
:102AC000891F9A1FA11D680F791F8A1F911DA11DC3
:102AD0006A0F711D811D911DA11D20D009F46894FC
:102AE0003F912AE0269F11243019305D3193DEF6A4
:102AF000CF010895462F4770405D4193B3E00FD05A
:102B0000C9F7F6CF462F4F70405D4A3318F0495D44
:102B100031FD4052419302D0A9F7EACFB4E0A69527
:102B20009795879577956795BA95C9F70097610549
:102B3000710508959B01AC010A2E0694579547959F
:102B400037952795BA95C9F7620F731F841F951F94
:082B5000A01D0895F894FFCFC9
:102B580046726F6E743A20252E3266696E004163A4
:102B680074696F6E3A2061766F69645F6F6273741F
:102B780061636C65002073616D706C652025643A33
:102B880020252E3266696E004E6F2076616C69646E
:102B98002072696768742072656164696E670054A1
:102BA8006F6F206D616E79206661696C6564207253
:102BB800656164696E67732C20666F7263696E67FE
:102BC8002077616C6C20636865636B005269676885
:102BD800743A20252E3266696E20287261773A2071
:102BE800252E3266696E2900416374696F6E3A203A
:102BF800636F72726563745F66726F6D5F77616C25
:102C08006C00416374696F6E3A2066696E645F7721
:102C1800616C6C00416374696F6E3A20636F6E7407
:102C2800696E756520286E6F207369676E696669BD
:102C380063616E74206368616E67652900466F7210
:102C48006365207265636865636B3A204E6F207612
:102C5800616C69642072656164696E67732064657C
:102C68007465637465640057616C6C207265616398
:102C7800717569726564210043616E6E6F742072AC
:102C880065616371756972652077616C6C2C20636E
:102C98006F6E74696E75696E6720616E7977617998
:102CA800005261772044697374616E63653A202528
:102CB8006C752E2530326C7520696E009A99993E94
:082CC800F0F7FB409A99993ED8
:00000001FF
