:100000000C94B5000C94D2000C94D2000C941F0AEE
:100010000C94D2000C94D2000C94D2000C9473086F
:100020000C94D2000C94D2000C94D2000C94D20008
:100030000C94D2000C94D2000C94D2000C94D200F8
:100040000C94D2000C94D2000C94D2000C94D200E8
:100050000C94D2000C94D2000C94D2000C94D200D8
:100060000C94D2000C94D2006E616E00696E660032
:1000700000407A10F35A00A0724E18090010A5D45F
:10008000E80000E87648170000E40B54020000CABC
:100090009A3B000000E1F505000080969800000002
:1000A00040420F000000A086010000001027000061
:1000B0000000E803000000006400000000000A00E7
:1000C000000000000100000000002C76D888DC67EA
:1000D0004F0823DFC1DFAE59E1B1B796E5E3E45342
:1000E000C63AE651997696E8E6C28426EB898C9B5F
:1000F00062ED407C6FFCEFBC9C9F40F2BAA56FA5FF
:10010000F490055A2AF75C936B6CF9676DC11BFC80
:10011000E0E40D47FEF520E6B500D0ED902E03009B
:10012000943577050080841E080000204E0A0000E8
:1001300000C80C333333330F986E12831141EF8DA7
:100140002114893BE65516CFFEE6DB18D1844B38E7
:100150001BF77C1D901DA4BBE424203284725E2218
:100160008100C9F124ECA1E53D2711241FBECFEF8A
:10017000D8E0DEBFCDBF13E0A0E0B1E0E6EFFDE2E6
:1001800002C005900D92A834B107D9F713E0A8E496
:10019000B3E001C01D92A736B107E1F70E944A0300
:1001A0000C94F9160C9400005F926F927F928F92DC
:1001B0009F92AF92BF92CF92DF92EF92FF920F93F6
:1001C0001F937B018C0120E030E040E050E00E9472
:1001D000E512882309F07AC0E0904C03F0904D03BB
:1001E00000914E0310914F03C801B70120E030E0A9
:1001F00040E050E00E942F14181664F00F2EF0E03B
:10020000EF2EF0E0FF2EF0E00F2FF0E01F2FF02D8B
:1002100099240CC0C801B70120E030E040E050E074
:100220000E9481127B018C0199249394A090500329
:10023000B0905103C0905203D0905303C601B50152
:1002400020E030E040E050E00E942F1418164CF4FB
:10025000C801B701A60195010E9481127B018C01A2
:100260009394A0905403B0905503C0905603D0903F
:100270005703C601B50120E030E040E050E00E94A5
:100280002F1418164CF4C801B701A60195010E945D
:1002900081127B018C019394992059F40F2EF0E088
:1002A000EF2EF0E0FF2EF0E10F2FF1E41F2FF02DE5
:1002B00094C0692D70E0882777FD8095982F0E9463
:1002C0007F139B01AC01C801B70183C08091580323
:1002D00090E0FC01EE0FFF1FEE0FFF1FE45BFC4FF1
:1002E000E082F18202831383019663E070E00E9452
:1002F000B51480935803A0904C03B0904D03C09068
:100300004E03D0904F03C601B50120E030E040E03D
:1003100050E00E942F14181664F00F2EF0E0AF2E5C
:10032000F0E0BF2EF0E0CF2EF0E0DF2EF02D5524D0
:100330000CC0C601B50120E030E040E050E00E9472
:1003400081125B016C0155245394609050037090AE
:1003500051038090520390905303C401B30120E0F5
:1003600030E040E050E00E942F1418164CF4C60113
:10037000B501A40193010E9481125B016C015394A9
:1003800060905403709055038090560390905703EB
:10039000C401B30120E030E040E050E00E942F149F
:1003A00018164CF4C601B501A40193010E948112F4
:1003B0005B016C015394552081F0652D70E0882716
:1003C00077FD8095982F0E947F139B01AC01C60199
:1003D000B5010E94E9127B018C01B701C8011F9190
:1003E0000F91FF90EF90DF90CF90BF90AF909F90D4
:1003F0008F907F906F905F900895AF92BF92CF9251
:10040000DF92EF92FF920F931F937B018C015901B2
:100410006A0120E030E040E050E00E94E5128823CD
:100420005CF40F2EF0E0EF2EF0E0FF2EF0E00F2F47
:10043000F0E01F2FF02D14C0C801B70120E030E01C
:1004400040E85FE30E942F14181654F40F2EF0E0DA
:10045000EF2EF0E0FF2EF0E80F2FFFE31F2FF02D1F
:10046000C601B50120E030E040E050E00E94E51216
:1004700088235CF40F2EF0E0AF2EF0E0BF2EF0E00A
:10048000CF2EF0E0DF2EF02D14C0C601B50120E024
:1004900030E040E85FE30E942F14181654F40F2E4A
:1004A000F0E0AF2EF0E0BF2EF0E8CF2EFFE3DF2E1E
:1004B000F02D80E090E0B801A70121E030E00E943B
:1004C000740A81E090E0B601A50121E030E00E94CD
:1004D000740A1F910F91FF90EF90DF90CF90BF9023
:1004E000AF900895EF92FF920F931F937B018C01C1
:1004F00020E030E040E050E00E94E51288235CF408
:100500000F2EF0E0EF2EF0E0FF2EF0E00F2FF0E0E6
:100510001F2FF02D14C0C801B70120E030E040E8E3
:100520005FE30E942F14181654F40F2EF0E0EF2E04
:10053000F0E0FF2EF0E80F2FFFE31F2FF02D80E0FB
:1005400090E0B801A7012FEF3FEF0E94740A81E00D
:1005500090E0B801A70121E030E00E94740A1F91E9
:100560000F91FF90EF90089580E090E040E050E020
:1005700060E070E021E030E00E94740A81E090E0E9
:1005800040E050E060E070E021E030E00E94740A5A
:1005900008959F92AF92BF92CF92DF92EF92FF9217
:1005A0000F931F93CF93DF930E94D9087B018C0197
:1005B00080E49CE90197F1F70E94D9085B016C0186
:1005C000C801B70120E030E040EC5FE30E942F1447
:1005D00087FF03C0C0E0D0E010C09924C801B70174
:1005E00020E030E048EC52E40E94E512181614F4C2
:1005F0009924939481E09826C92DC601B50120E085
:1006000030E040EC5FE30E942F1487FF03C080E0DE
:1006100090E010C09924C601B50120E030E048EC1C
:1006200052E40E94E512181614F49924939481E080
:100630009826892DCC2389F08823F1F0C801B701D1
:10064000A60195010E94811220E030E040E05FE3C6
:100650000E9433147B018C010FC0882359F40F2EA4
:10066000F0E0EF2EF0E0FF2EF0E00F2FF0E01F2F74
:10067000F02D02C086017501B701C801DF91CF914D
:100680001F910F91FF90EF90DF90CF90BF90AF90B0
:100690009F9008952F923F924F925F926F927F9218
:1006A0008F929F92AF92BF92CF92DF92EF92FF9282
:1006B0000F931F93DF93CF93CDB7DEB7C554D040D0
:1006C0000FB6F894DEBF0FBECDBF0E94690A0E942C
:1006D000CB080E94850B0E94640880E895E20E9486
:1006E0002A0C789486E990E00E94B90B88E893E19F
:1006F00020E931E0F9013197F1F70197D9F780E06E
:1007000091E00E94550C88E291E00E94550C0E94F5
:10071000B40288E893E120E931E0F9013197F1F77B
:100720000197D9F74424552426961CAE1DAE1EAE63
:100730001FAE269722961FAE2297E0E92E2EE1E00B
:100740003E2E0E9498083B014C0122E042165104C3
:1007500009F4F1C233E04316510440F4411451044A
:1007600091F041E04416510459F474C053E0451629
:10077000510409F49BC384E04816510409F418C4D9
:10078000442455249CC486E990E00E94B90B88EE6D
:1007900093E0F1013197F1F70197D9F70E94C9026F
:1007A0000E94D4007B018C01ADB7BEB71A970FB67B
:1007B000F894BEBF0FBEADBFEDB7FEB7319621E0D6
:1007C00030E02C0F3D1F12963C932E93119780E43E
:1007D00090E09383828349E451E055834483E68229
:1007E000F782008711870E946A168DB79EB70A9616
:1007F0000FB6F8949EBF0FBE8DBFCE0101960E942A
:10080000550CC801B70120E030E040E050E00E9404
:100810002F1418169CF48FE591E00E94550C60E0AF
:1008200070E080E89EE39B01AC010E94FD012696EA
:100830006CAE7DAE8EAE9FAE26973EC48FE791E044
:100840000E94550C88EE93E0F1013197F1F7019782
:10085000D9F735C486E990E00E94A10B882359F4AA
:1008600086E990E00E94B90B88EE93E0F1013197A0
:10087000F1F70197D9F70E94C9027B018C010E9410
:10088000D4005B016C01ADB7BEB71A970FB6F894F0
:10089000BEBF0FBEADBFEDB7FEB7319621E030E071
:1008A0002C0F3D1F12963C932E93119780E490E0FD
:1008B000938382834CE951E055834483A682B782B7
:1008C000C086D1860E946A168DB79EB70A960FB66B
:1008D000F8949EBF0FBE8DBFCE0101960E94550CAD
:1008E000C801B70120E030E040E050E00E94E5128E
:1008F000882399F422969FAD22979F5F22969FAFFF
:10090000229786EA91E00E94550C2296AFAD22977D
:10091000A43030F089EB91E02BC022961FAE2297D5
:10092000C601B50120E030E040E050E00E942F1405
:10093000181694F4C601B50120E030E040E050E420
:100940000E94E512882344F48CED91E00E94550C3E
:1009500074E0472E512CB3C3C601B50120E030E04E
:1009600040E951E40E942F14181644F48AEF91E0F4
:100970000E94550C63E0462E512CA1C3D401C30143
:1009800026962CAD3DAD4EAD5FAD2697821B930BE9
:10099000A40BB50B87399105A105B10508F4C0C0BA
:1009A0006AE979E989E19EE39B01AC010E94FD01BE
:1009B0008EE591E00E94B90B88EE93E0F10131974A
:1009C000F1F70197D9F70E94D9087B018C0120E04B
:1009D00030E040EC5FE30E942F14882354F0C801FC
:1009E000B70120E030E048EC52E40E94E51218160E
:1009F00054F40F2EF0E0EF2EF0E0FF2EF0E00F2F7A
:100A0000F0E01F2FF02D4DB75EB74A5050400FB6A3
:100A1000F8945EBF0FBE4DBFEDB7FEB7319621E033
:100A200030E02C0F3D1FADB7BEB712963C932E930E
:100A3000119780E490E09383828343E152E05583F1
:100A40004483E682F782008711870E946A168DB779
:100A50009EB70A960FB6F8949EBF0FBE8DBFCE010B
:100A600001960E94550C86E990E00E94B90B88EE31
:100A700093E0F1013197F1F70197D9F7C801B70178
:100A800020E030E040E050E00E942F1418160CF0F7
:100A900041C0C801B70120E030E040E651E40E94C7
:100AA000E5128823BCF5ADB7BEB71A970FB6F89418
:100AB000BEBF0FBEADBFEDB7FEB7319621E030E04F
:100AC0002C0F3D1F12963C932E93119780E490E0DB
:100AD000938382834DE152E055834483E682F7821B
:100AE000008711870E946A168DB79EB70A960FB6C7
:100AF000F8949EBF0FBE8DBFCE0101960E94550C8B
:100B000026966CAE7DAE8EAE9FAE269752E0452EF9
:100B1000512CD5C226966CAE7DAE8EAE9FAE26977A
:100B2000C601B50120E030E040E151E40E948012AE
:100B30005B016C0129E23CE54FE05DE30E94331468
:100B40007B018C01C601B501209148033091490316
:100B500040914A0350914B030E9480122FE832ECDF
:100B600045E75CE30E9433149B01AC01C801B70167
:100B70000E9481123B014C01A0924803B0924903AC
:100B8000C0924A03D0924B032AE939E949E15EE376
:100B90000E942F1418165CF40F2EFAE96F2EF9E953
:100BA0007F2EF9E18F2EFEE39F2EF02D14C0C4019D
:100BB000B3012AE939E949E15EEB0E94E512882395
:100BC00054F40F2EFAE96F2EF9E97F2EF9E18F2EFA
:100BD000FEEB9F2EF02DC601B50120E030E040E095
:100BE00050E00E94E512882324F4D7FAD094D7F875
:100BF000D094C601B50120E030E040E250E40E940C
:100C0000E51288235CF40F2EFAE0EF2EF7EDFF2EAD
:100C1000F3EA0F2FFEE31F2FF02D1FC0C601B50111
:100C200020E030E040E450E40E942F1418165CF4F9
:100C30000F2EFAE9EF2EF9E9FF2EF9E10F2FFEE36F
:100C40001F2FF02D0AC00F2EF0E0EF2EF0E0FF2E48
:100C5000F0E80F2FFEE31F2FF02DC801B701A4010C
:100C600093010E9481125B016C01C801B701A401CC
:100C700093010E9480127B018C01C601B5012AE913
:100C800039E949E15EE30E94E512882354F40F2E0E
:100C9000FAE9AF2EF9E9BF2EF9E1CF2EFEE3DF2E00
:100CA000F02DC801B7012AE939E949E15EE30E9464
:100CB000E512882354F40F2EFAE9EF2EF9E9FF2EFE
:100CC000F9E10F2FFEE31F2FF02DC601B5012AE039
:100CD00037ED43EA5EE30E942F14181654F40F2EEA
:100CE000FAE0AF2EF7EDBF2EF3EACF2EFEE3DF2EB4
:100CF000F02DC801B7012AE037ED43EA5EE30E9418
:100D00002F14181654F40F2EFAE0EF2EF7EDFF2EE5
:100D1000F3EA0F2FFEE31F2FF02DC601B501A80146
:100D200097010E94FD0188EC90E0F1013197F1F705
:100D30000197D9F7C4C10E94B40288EE93E0F10193
:100D40003197F1F70197D9F781E392E00E94550CB2
:100D50006EEA77E481E69EE30E94720280ED97E0FE
:100D6000F1013197F1F70197D9F70E94B40284EFAE
:100D700091E0F1013197F1F70197D9F78EE591E014
:100D80000E94B90B88EE93E0F1013197F1F70197DA
:100D9000D9F70E94D9087B018C0120E030E040ECBB
:100DA0005FE30E942F14882354F0C801B70120E0AC
:100DB00030E048EC52E40E94E512181654F40F2E6D
:100DC000F0E0EF2EF0E0FF2EF0E00F2FF0E01F2F0D
:100DD000F02DADB7BEB71A970FB6F894BEBF0FBED1
:100DE000ADBFEDB7FEB7319621E030E02C0F3D1FCF
:100DF00012963C932E93119780E490E09383828324
:100E000042E552E055834483E682F78200871187EA
:100E10000E946A168DB79EB70A960FB6F8949EBFC9
:100E20000FBE8DBFCE0101960E94550C86E990E061
:100E30000E94B90B88EE93E0F1013197F1F7019729
:100E4000D9F7C801B70120E030E040E050E00E944F
:100E50002F1418167CF4C801B70120E030E040E6FA
:100E600051E40E94E51288232CF487E692E00E9468
:100E7000550C25C160E070E080E89EE39B01AC0169
:100E80000E94FD018CED95E0F1013197F1F701979A
:100E9000D9F70E94980826966CAF7DAF8EAF9FAFB2
:100EA000269786E892E00E94550C06C186E990E0FC
:100EB0000E94A10B882359F486E990E00E94B90BA7
:100EC00088EE93E0F1013197F1F70197D9F78BE9BB
:100ED00092E00E94550C60E070E080E89EE32AE911
:100EE00039E949E15EE30E94FD0180ED97E0F101FF
:100EF0003197F1F70197D9F70E94C9020E94D400F7
:100F00007B018C01ADB7BEB71A970FB6F894BEBF80
:100F10000FBEADBFEDB7FEB7319621E030E02C0F2C
:100F20003D1F12963C932E93119780E490E093839B
:100F3000828348EB52E055834483E682F782008740
:100F400011870E946A168DB79EB70A960FB6F8945D
:100F50009EBF0FBE8DBFCE0101960E94550CC801E9
:100F6000B70120E030E040E050E00E942F14181656
:100F70000CF0A5C0C801B70120E030E040E951E421
:100F80000E94E51288230CF09AC08AEC92E00E943D
:100F9000550C0E94980826966CAF7DAF8EAF9FAF20
:100FA000269741E0442E512C22961FAE229787C0EF
:100FB0000E94B40286ED92E00E94550C88EE93E008
:100FC000F1013197F1F70197D9F780E090E04CEE0D
:100FD00051E568E37EE32FEF3FEF0E94740A81E062
:100FE00090E04CEE51E568E37EE32FEF3FEF0E9487
:100FF000740A80ED97E0F1013197F1F70197D9F785
:101000000E94B40284EF91E0F1013197F1F701976A
:10101000D9F78DEE92E00E94550C6EEA77E481E6F6
:101020009EE30E9472028CED95E0F1013197F1F799
:101030000197D9F70E94B40284EF91E0F101319752
:10104000F1F70197D9F70E94C9020E94D400ADB709
:10105000BEB71A970FB6F894BEBF0FBEADBFEDB7BF
:10106000FEB7319621E030E02C0F3D1F12963C93E5
:101070002E93119720E430E03383228344E053E041
:101080005583448366837783808791870E946A169D
:101090008DB79EB70A960FB6F8949EBF0FBE8DBF50
:1010A000CE0101960E94550C0E94980826966CAFBE
:1010B0007DAF8EAF9FAF269731E0432E512C80E459
:1010C0009CE90197F1F73DCB82E08093B00084E08A
:1010D0008093B10089EF8093B300E0E7F0E0808176
:1010E0008260808308951F920F920FB60F92112491
:1010F0008F939F93AF93BF938091590390915A031D
:10110000A0915B03B0915C030196A11DB11D80937A
:10111000590390935A03A0935B03B0935C03BF9170
:10112000AF919F918F910F900FBE0F901F901895C8
:101130008FB7F8942091590330915A0340915B0383
:1011400050915C038FBFB901CA0108951F932FB757
:10115000F8946091590370915A0380915B039091C8
:101160005C031091B2002FBF2AEF30E040E050E066
:101170000E9496149B01AC01210F311D411D511D90
:1011800082E0220F331F441F551F8A95D1F7B90102
:10119000CA011F910895249A25982C98E8E6F0E05A
:1011A000808181608083EBE6F0E0808180628083D3
:1011B0000895EF92FF920F931F9310925D03109288
:1011C0005E032C9A85E38A95F1F72C980E94A60875
:1011D0007B018C010BC00E94A6086E197F09800B51
:1011E000910B69597A4380409040A0F580915D034E
:1011F000882389F360915F0370916003809161039C
:1012000090916203209163033091640340916503E0
:1012100050916603621B730B840B950B0E947D1328
:1012200021EA3FE34DED5BE30E9433147B018C0127
:1012300020E030E040EC5FE30E94E51287FD0AC049
:10124000C801B70120E030E040EA52E40E942F14C8
:10125000181654F40F2EF0E0EF2EF0E0FF2EF0E021
:101260000F2FF0E01F2FF02DB701C8011F910F9134
:10127000FF90EF900895AF92BF92CF92DF92EF92DE
:10128000FF920F931F93DF93CF93CDB7DEB7C05478
:10129000D0400FB6F894DEBF0FBECDBF2C9A85E3C9
:1012A0008A95F1F72C988CE291E020E931E0F90180
:1012B0003197F1F70197D9F70E94D90820E030E083
:1012C00048EC52E40E9433140E9451137B018C01BC
:1012D0008DB79EB70E970FB6F8949EBF0FBE8DBF09
:1012E000CDB6DEB60894C11CD11C5E010894A11CC9
:1012F000B11CEDB7FEB7B282A18280E490E0F601A6
:10130000938382838FE193E095838483B701C8013F
:1013100024E630E040E050E00E94C814F601268345
:10132000378340875187B701C80124E630E040E0A9
:1013300050E00E94C814F6016287738784879587FE
:101340000E946A168DB79EB70E960FB6F8949EBF90
:101350000FBE8DBFC5010E94550CC05CDF4F0FB69C
:10136000F894DEBF0FBECDBFCF91DF911F910F91DB
:10137000FF90EF90DF90CF90BF90AF9008950E94C4
:10138000B90B80E293E020E931E0F9013197F1F700
:101390000197D9F70E94D90888EC90E020E931E064
:1013A000F9013197F1F70197D9F70E94D90808950B
:1013B000AF92BF92CF92DF92EF92FF920F931F9363
:1013C0000E94D9085B016C0180ED97E00197F1F76D
:1013D0000E94D9087B018C01C601B50120E030E0F4
:1013E00040E050E00E94E5128823D9F0C801B7011F
:1013F00020E030E040E050E00E94E512882319F43C
:10140000860175010EC0C601B501A80197010E94B1
:10141000811220E030E040E05FE30E9433147B0162
:101420008C01B701C8011F910F91FF90EF90DF90E1
:10143000CF90BF90AF9008950E94D90808951F9251
:101440000F920FB60F9211242F933F934F935F93F8
:101450006F937F938F939F93AF93BF93EF93FF937C
:101460000E94A6089B01AC011D9B0CC06093630306
:1014700070936403809365039093660381E0809387
:101480005E0311C080915E03882369F020935F039F
:1014900030936003409361035093620381E0809333
:1014A0005D0310925E03FF91EF91BF91AF919F9109
:1014B0008F917F916F915F914F913F912F910F90FD
:1014C0000FBE0F901F901895529A559A549A569A9B
:1014D00008950E94640A93E094BD84B5806A84BD37
:1014E00095BD17BC18BC0895CF92DF92EF92FF9282
:1014F0000F931F93CF93DF93EC017A018B01690166
:10150000CB01BA0120E030E040E050E00E94E5125B
:1015100088235CF40F2EF0E0EF2EF0E0FF2EF0E0D9
:101520000F2FF0E01F2FF02D14C0C801B70120E0ED
:1015300030E040E85FE30E942F14181654F40F2E99
:10154000F0E0EF2EF0E0FF2EF0E80F2FFFE31F2F6B
:10155000F02DC801B70120E030E048E453E40E94D8
:1015600033140E945113693C08F068EC209749F449
:1015700068BD81E0C816D10411F45A9A0CC05A987B
:101580000AC0219741F467BD81E0C816D10411F467
:101590005C9801C05C9ADF91CF911F910F91FF90F1
:1015A000EF90DF90CF9008952F923F924F925F92ED
:1015B0006F927F928F929F92AF92BF92CF92DF9263
:1015C000EF92FF920F931F931B012C0139014A01E7
:1015D000C8010E94B90B80E293E020E931E0F901F3
:1015E0003197F1F70197D9F70E94D9088CE291E081
:1015F00020E931E0F9013197F1F70197D9F70E941D
:10160000D9087B018C0120E030E040E050E00E94EE
:10161000E512181654F4C801B70124EF39EF4CE372
:1016200051E40E942F14181614F484017301C801A8
:10163000B701A40193010E94E9129B01AC01C20110
:10164000B1010E9433145B016C01C401B301A80114
:1016500097010E94E9129B01AC01C201B1010E94F5
:1016600033147B018C01C601B50120E030E040E875
:101670005FE30E942F14181654F40F2EF0E0AF2EE3
:10168000F0E0BF2EF0E8CF2EFFE3DF2EF02DC801F3
:10169000B70120E030E040E85FE30E942F14181605
:1016A00054F40F2EF0E0EF2EF0E0FF2EF0E80F2FB5
:1016B000FFE31F2FF02D80E090E0B601A50121E0AF
:1016C00030E00E94740A81E090E0B801A70121E0B7
:1016D00030E00E94740A80E991E020E931E0F901EC
:1016E0003197F1F70197D9F71F910F91FF90EF9084
:1016F000DF90CF90BF90AF909F908F907F906F9032
:101700005F904F903F902F900895229A83E28093AC
:101710008000E1E8F0E088E180838081836080835D
:1017200087E893E190938900809388008EE591E0AB
:1017300090938B0080938A00909347038093460395
:101740000895209146033091470340E0281B390B50
:1017500037FF03C0309521953F4F263031050CF4FB
:1017600041E0842F08952091460330914703C90139
:101770000895863991051CF486E990E006C022E0C0
:101780008237920714F081E792E02091460330916E
:101790004703281B390B37FF03C0309521953F4F76
:1017A0002630310514F480E0089590938B008093E7
:1017B0008A00909347038093460381E00895CF9376
:1017C000DF93FC01EB01863991051CF4E6E9F0E0BA
:1017D00006C082E0E237F80714F0E1E7F2E080911A
:1017E0004603909147038E1B9F0B97FF03C0909574
:1017F00081959F4F06971CF4188280E028C02091A5
:101800004603309147032E1B3F0B37FF03C0309533
:1018100021953F4FC90144E0880F991F4A95E1F790
:10182000821B930B64E670E00E94B514643110F4DF
:1018300064E103C0613508F060E56883F0938B00D4
:10184000E0938A00F0934703E093460381E0DF9141
:10185000CF9108959C0140E050E060E472E48FE095
:1018600090E00E94EA14215030403093C50020934C
:10187000C40088E18093C1008EE08093C200089587
:10188000982F8091C00085FFFCCF9093C6000895EB
:10189000FC0107C08091C00085FFFCCF319690937A
:1018A000C60090819923B1F708950E94480C809159
:1018B000C00085FFFCCF8DE08093C6008091C00002
:1018C00085FFFCCF8AE08093C6000895EF92FF92D7
:1018D0000F931F9380E090E040E050E060E070E004
:1018E00021E030E00E94740A81E090E040E050E0A6
:1018F00060E070E021E030E00E94740A84EF91E043
:1019000020E931E0F9013197F1F70197D9F76091BA
:101910003A0370913B0380913C0390913D032AE987
:1019200039E949E95EE30E9481127B018C0180E084
:1019300090E0A701B8012FEF3FEF0E94740A81E009
:1019400090E0A701B80121E030E00E94740A88EB22
:101950009BE020E931E0F9013197F1F70197D9F7E0
:1019600080E090E040E050E060E070E021E030E0B6
:101970000E94740A81E090E040E050E060E070E096
:1019800021E030E00E94740A1F910F91FF90EF90C8
:101990000895409142035091430360914403709134
:1019A000450380E090E02FEF3FEF0E94740A4091E2
:1019B000420350914303609144037091450381E0D9
:1019C00090E02FEF3FEF0E94740A84E991E120E953
:1019D00031E0F9013197F1F70197D9F780E090E014
:1019E00040E050E060E070E021E030E00E94740AE6
:1019F00081E090E040E050E060E070E021E030E025
:101A00000E94740A84EF91E020E931E0F9013197F6
:101A1000F1F70197D9F74091420350914303609148
:101A200044037091450380E090E021E030E00E94A3
:101A3000740A4091420350914303609144037091B2
:101A4000450381E090E02FEF3FEF0E94740A88E8A1
:101A500093E120E931E0F9013197F1F70197D9F7E6
:101A600081E090E040E050E060E070E02FEF3FEF79
:101A70000E94740A80E090E040E050E060E070E096
:101A80002FEF3FEF0E94740A80ED97E020E931E0EC
:101A9000F9013197F1F70197D9F74091420350913D
:101AA0004303609144037091450380E090E02FEF81
:101AB0003FEF0E94740A40914203509143036091AA
:101AC00044037091450381E090E02FEF3FEF0E94C7
:101AD000740A84E991E120E931E0F9013197F1F7E5
:101AE0000197D9F781E090E040E050E060E070E0DD
:101AF0002FEF3FEF0E94740A80E090E040E050E05A
:101B000060E070E02FEF3FEF0E94740A80ED97E0F5
:101B100020E931E0F9013197F1F70197D9F70895FC
:101B200040914203509143036091440370914503F7
:101B300080E090E021E030E00E94740A409142038E
:101B400050914303609144037091450381E090E01C
:101B50002FEF3FEF0E94740A88EB9BE020E931E011
:101B6000F9013197F1F70197D9F780E090E040E073
:101B700050E060E070E021E030E00E94740A81E013
:101B800090E040E050E060E070E021E030E00E9452
:101B9000740A88E893E120E931E0F9013197F1F71F
:101BA0000197D9F740914203509143036091440358
:101BB0007091450381E090E021E030E00E94740ADA
:101BC0004091420350914303609144037091450357
:101BD00080E090E021E030E00E94740A80E49FE120
:101BE00020E931E0F9013197F1F70197D9F780E069
:101BF00090E040E050E060E070E021E030E00E94E2
:101C0000740A81E090E040E050E060E070E021E0A4
:101C100030E00E94740A88E893E120E931E0F9019C
:101C20003197F1F70197D9F740914203509143035F
:101C3000609144037091450380E090E02FEF3FEF07
:101C40000E94740A409142035091430360914403FF
:101C50007091450381E090E021E030E00E94740A39
:101C600088EB9BE020E931E0F9013197F1F701972A
:101C7000D9F781E090E040E050E060E070E02FEFC5
:101C80003FEF0E94740A80E090E040E050E060E0A6
:101C900070E02FEF3FEF0E94740A88E893E120E99B
:101CA00031E0F9013197F1F70197D9F7089581E013
:101CB00090E040E050E060E070E02FEF3FEF0E94E6
:101CC000740A80E090E040E050E060E070E02FEFC8
:101CD0003FEF0E94740A88E893E120E931E0F901BE
:101CE0003197F1F70197D9F740914203509143039F
:101CF000609144037091450380E090E021E030E082
:101D00000E94740A4091420350914303609144033E
:101D10007091450381E090E02FEF3FEF0E94740A3D
:101D200088EB9BE020E931E0F9013197F1F7019769
:101D3000D9F781E090E040E050E060E070E02FEF04
:101D40003FEF0E94740A80E090E040E050E060E0E5
:101D500070E02FEF3FEF0E94740A88E893E120E9DA
:101D600031E0F9013197F1F70197D9F7409142033A
:101D700050914303609144037091450381E090E0EA
:101D800021E030E00E94740A4091420350914303E5
:101D9000609144037091450380E090E021E030E0E1
:101DA0000E94740A80E49FE120E931E0F901319753
:101DB000F1F70197D9F780E090E040E050E060E073
:101DC00070E021E030E00E94740A81E090E040E0A1
:101DD00050E060E070E021E030E00E94740A88E8A2
:101DE00093E120E931E0F9013197F1F70197D9F753
:101DF0000895A1E1B0E0EFEFFEE00C9405153C0181
:101E00007F876E876A01FC0117821682838181FDBC
:101E100003C06FEF7FEF6FC39E012F5F3F4F398B82
:101E2000288BF3012381EE85FF8523FD859123FF18
:101E30008191FF87EE87882309F45AC3853251F4D4
:101E4000EE85FF8523FD859123FF8191FF87EE8736
:101E5000853229F490E0B3010E943E16E2CF982F1C
:101E600010E0882499241032B0F49B3269F09C323F
:101E700028F4903251F0933271F40BC09D3239F056
:101E8000903349F4116028C01260146025C01860B6
:101E900023C0106121C017FD2AC0892F80538A30CA
:101EA00078F416FF06C0FAE09F9E902C1124980E3D
:101EB00013C03AE0839E802C1124880E10620CC05F
:101EC0009E3221F416FD14C3106406C09C3611F432
:101ED000106802C0983659F4EE85FF8523FD959170
:101EE00023FF9191FF87EE87992309F0BCCF892FBB
:101EF0008554833020F4812F8061905E07C0892F44
:101F00008556833008F09FC1812F8F7E86FD02C0E9
:101F100076E0972E6FE3F62EF822953619F4F0E46A
:101F2000FF2A07C0963619F420E8F22A02C0911061
:101F30009A94F7FE0AC03BE3391518F45CE3B52E1A
:101F400002C0B92CB39427E009C047E0491520F43A
:101F5000BB2447E0942EF7CF292DBB24C60104965D
:101F60009D878C87F6016081718182819381AE01AA
:101F70004F5F5F4F0B2D0E9450156C010981202E81
:101F8000332400FF04C003FD02C01DE209C0F1FEBE
:101F900002C01BE205C0F2FC02C010E001C010E26A
:101FA000C1018C709070892BB9F1112311F483E079
:101FB00001C084E0881510F088240AC0881AF3FC58
:101FC00007C080E290E0B3010E943E168A94C9F7F0
:101FD000112329F0812F90E0B3010E943E1623FEC9
:101FE00003C008E610E00EC00CE610E00BC0E114E0
:101FF000F10409F0805290E0B3010E943E160F5F99
:102000001F4F05C0EF2CFF24F0E1EF22FF24F80161
:102010008491882361F714C1F7FE12C0BC0C24FE22
:1020200004C08A81813309F4BA941B141CF0BB24C8
:10203000B3942DC0F8E0FB1550F538E0B32E27C05F
:10204000F6FC25C0892D90E08C159D054CF02CEFF9
:10205000C2162FEFD20624F030E8F32A01C09A947A
:10206000992049F0E2E0F0E0EC0FFD1FE90DF11DD1
:1020700080818033A1F3F7FE0AC0B92CB394892D77
:1020800090E0C816D90614F0992401C09C18F7FCFA
:1020900003C025E030E009C01C141D041CF021E041
:1020A00030E003C096012F5F3F4F112311F02F5FE7
:1020B0003F4F992029F0892D90E00196280F391F74
:1020C000882D90E02817390714F0882401C0821A5F
:1020D0004F2C5524C20189709070892B39F008C0AB
:1020E00080E290E0B3010E943E168A948820C1F7F6
:1020F000112329F0812F90E0B3010E943E1643FE88
:1021000007C008C080E390E0B3010E943E168A94A5
:102110008820C1F7F7FE46C08601D7FE02C000E066
:1021200010E076010894E11CF11CE01AF10A41E08C
:1021300050E04C0F5D1FE40EF51E26014B185108B0
:10214000892D90E0AA24BB24A81AB90A5FEF0F3F9B
:10215000150729F48EE290E0B3010E943E16C016E6
:10216000D10634F0401651061CF4F701808101C0FD
:1021700080E3015010400894E11CF11C0A151B0576
:102180002CF090E0B3010E943E16E0CF0C151D0527
:1021900039F49A81963318F4953311F424FE81E3CF
:1021A00090E04BC08A81813309F00F7E90E0B3014B
:1021B0000E943E169920A1F08EE290E0B3010E94A9
:1021C0003E1612E0E1E0F0E0EC0FFD1FE10FF11D23
:1021D0001F5F808190E0B3010E943E169A9491F7B0
:1021E00044FC03C085E690E002C085E490E0B301C2
:1021F0000E943E16D7FC05C0C114D10441F404FF6F
:1022000006C0D094C194D108D3948DE201C08BE272
:1022100090E0B3010E943E1680E305C08F5F26EF79
:102220003FEFC20ED31E3AE0C316D104BCF790E0D4
:10223000B3010E943E16C601C096B3010E943E162D
:10224000CC84DD8452C1933631F0933799F09335C5
:1022500009F059C023C0F601808189835E0108948A
:10226000A11CB11C22E030E0C20ED31E21E0E22E00
:10227000F12C12C0F601A080B18016FD03C06FEFF3
:102280007FEF02C0692D70E022E030E0C20ED31E65
:10229000C5010E9433167C011F7713C0F601A08090
:1022A000B18016FD03C06FEF7FEF02C0692D70E0B3
:1022B00022E030E0C20ED31EC5010E9428167C0128
:1022C000106813FF07C01BC080E290E0B3010E94BA
:1022D0003E168A94882D90E0E816F906A8F30FC000
:1022E000F50117FD859117FF81915F0190E0B30122
:1022F0000E943E1681108A940894E108F108E114C6
:10230000F10471F7F2C0943611F0993689F517FF90
:1023100008C0F601208131814281538184E090E040
:102320000AC0F601808191819C01442737FD4095C8
:10233000542F82E090E0C80ED91E9FE6F92EF122BC
:1023400057FF09C050954095309521953F4F4F4F0D
:102350005F4F90E8F92ACA01B901AE014F5F5F4FA4
:102360002AE030E00E949B16E82EE889EE1A41C070
:10237000953721F41F7E2AE030E01CC0197F9F367C
:1023800061F0903720F4983509F0B2C00FC0903753
:1023900039F0983709F0ACC004C028E030E00AC03A
:1023A000106114FD146020E130E004C014FD1660DB
:1023B00020E132E017FF08C0F6016081718182815F
:1023C000938144E050E008C0F60180819181BC0116
:1023D00080E090E042E050E0C40ED51EAE014F5FB9
:1023E0005F4F0E949B16E82E5889E51A8FE7F82E5A
:1023F000F122F6FE0BC08EEFF822E91438F4F4FE59
:1024000007C0F2FC05C09FEEF92202C01E2D01C0DC
:10241000192DF4FE0DC0FE01EE0DF11D80818033FB
:1024200019F4E9EEFE2208C01F5FF2FE05C003C0EA
:102430008F2D867809F01F5F0F2DF3FC14C0F0FE7E
:102440000FC0181510F09E2C0BC09E2C980C911AE2
:10245000182D06C080E290E0B3010E943E161F5F77
:102460001815C0F304C0181510F4811A01C088248F
:1024700004FF0FC080E390E0B3010E943E1602FF0C
:102480001DC001FD03C088E790E00EC088E590E024
:102490000BC0802F867891F001FF02C08BE201C053
:1024A00080E2F7FC8DE290E0B3010E943E1606C088
:1024B00080E390E0B3010E943E169A94E914C0F3C1
:1024C000EA94E1E0F0E0EC0FFD1FEE0DF11D8081DC
:1024D00090E0B3010E943E16EE2091F706C080E224
:1024E00090E0B3010E943E168A948820C1F799CCEF
:1024F000F30166817781CB016196E2E10C942115AD
:102500005058BB27AA270ED070C161D130F066D1D8
:1025100020F031F49F3F11F41EF456C10EF4E09503
:10252000E7FB4CC1E92F72D180F3BA17620773073A
:102530008407950718F071F49EF58AC10EF4E095B2
:102540000B2EBA2FA02D0B01B90190010C01CA016D
:10255000A0011124FF27591B99F0593F50F4503E18
:1025600068F11A16F040A22F232F342F4427585F0A
:10257000F3CF469537952795A795F0405395C9F722
:102580007EF41F16BA0B620B730B840BBAF09150DA
:10259000A1F0FF0FBB1F661F771F881FC2F70EC079
:1025A000BA0F621F731F841F48F48795779567954C
:1025B000B795F7959E3F08F0B3CF9395880F08F035
:1025C0009927EE0F979587950895D4D008F481E068
:1025D00008950CD00AC102D140F0F9D030F021F4B6
:1025E0005F3F19F0EBC0511134C1EEC00FD198F329
:1025F0009923C9F35523B1F3951B550BBB27AA2784
:1026000062177307840738F09F5F5F4F220F331FF5
:10261000441FAA1FA9F333D00E2E3AF0E0E830D0C1
:1026200091505040E695001CCAF729D0FE2F27D0C4
:10263000660F771F881FBB1F261737074807AB0792
:10264000B0E809F0BB0B802DBF01FF2793585F4F07
:102650002AF09E3F510568F0B1C0FBC05F3FECF32C
:10266000983EDCF3869577956795B795F7959F5FCC
:10267000C9F7880F911D9695879597F90895E1E020
:10268000660F771F881FBB1F621773078407BA077F
:1026900020F0621B730B840BBA0BEE1F88F7E095DA
:1026A0000895BCD088F09F5790F0B92F9927B75163
:1026B000A0F0D1F0660F771F881F991F1AF0BA9506
:1026C000C9F712C0B13081F0C3D0B1E00895C0C0E5
:1026D000672F782F8827B85F39F0B93FCCF38695FC
:1026E00077956795B395D9F73EF490958095709559
:1026F00061957F4F8F4F9F4F0895E89409C097FBD6
:102700003EF490958095709561957F4F8F4F9F4FC8
:102710009923A9F0F92F96E9BB279395F69587950C
:1027200077956795B795F111F8CFFAF4BB0F11F4CF
:1027300060FF1BC06F5F7F4F8F4F9F4F16C0882376
:1027400011F096E911C0772321F09EE8872F762FAC
:1027500005C0662371F096E8862F70E060E02AF0ED
:102760009A95660F771F881FDAF7880F96958795D9
:1027700097F90895990F0008550FAA0BE0E8FEEFAE
:1027800016161706E807F907C0F012161306E40735
:10279000F50798F0621B730B840B950B39F40A262E
:1027A00061F0232B242B252B21F408950A2609F40C
:1027B000A140A6958FEF811D811D089597F99F6710
:1027C00080E870E060E008959FEF80EC08950024B9
:1027D0000A941616170618060906089500240A9486
:1027E00012161306140605060895092E0394000C0C
:1027F00011F4882352F0BB0F40F4BF2B11F460FF9B
:1028000004C06F5F7F4F8F4F9F4F089557FD9058C3
:10281000440F551F59F05F3F71F04795880F97FBA4
:10282000991F61F09F3F79F087950895121613065E
:102830001406551FF2CF4695F1DF08C0161617068D
:102840001806991FF1CF86957105610508940895C2
:10285000E894BB2766277727CB0197F908958ADF8D
:1028600008F48FEF08950BD0C0CFB1DF28F0B6DFAA
:1028700018F0952309F0A2CFA7CF1124EACFC6DF25
:10288000A0F3959FD1F3950F50E0551F629FF00183
:10289000729FBB27F00DB11D639FAA27F00DB11DDC
:1028A000AA1F649F6627B00DA11D661F829F222765
:1028B000B00DA11D621F739FB00DA11D621F839FEC
:1028C000A00D611D221F749F3327A00D611D231FC2
:1028D000849F600D211D822F762F6A2F11249F5710
:1028E00050408AF0E1F088234AF0EE0FFF1FBB1F33
:1028F000661F771F881F91505040A9F79E3F5105D2
:1029000070F05CCFA6CF5F3FECF3983EDCF386958A
:1029100077956795B795F795E7959F5FC1F7FE2B7C
:10292000880F911D9695879597F90895629FD0011C
:10293000739FF001829FE00DF11D649FE00DF11D7A
:10294000929FF00D839FF00D749FF00D659FF00D29
:102950009927729FB00DE11DF91F639FB00DE11D16
:10296000F91FBD01CF011124089597FB092E0726F9
:102970000AD077FD04D080D006D000201AF47095DC
:1029800061957F4F0895F6F7909581959F4F089533
:10299000A1E21A2EAA1BBB1BFD010DC0AA1FBB1F63
:1029A000EE1FFF1FA217B307E407F50720F0A21BD5
:1029B000B30BE40BF50B661F771F881F991F1A9442
:1029C00069F760957095809590959B01AC01BD016C
:1029D000CF01089597FB092E05260ED057FD04D090
:1029E000D7DF0AD0001C38F45095409530952195DA
:1029F0003F4F4F4F5F4F0895F6F790958095709534
:102A000061957F4F8F4F9F4F08952F923F924F9226
:102A10005F926F927F928F929F92AF92BF92CF926E
:102A2000DF92EF92FF920F931F93CF93DF93CDB777
:102A3000DEB7CA1BDB0B0FB6F894DEBF0FBECDBFEF
:102A400009942A88398848885F846E847D848C84C0
:102A50009B84AA84B984C884DF80EE80FD800C81C9
:102A60001B81AA81B981CE0FD11D0FB6F894DEBFAC
:102A70000FBECDBFED010895AA1BBB1B51E107C0DE
:102A8000AA1FBB1FA617B70710F0A61BB70B881FFE
:102A9000991F5A95A9F780959095BC01CD0108958D
:102AA000283008F027E03327DA01990F311D87FD20
:102AB000916000966105710539F432602E5F3D9397
:102AC00030E32A95E1F708959F3F30F08038710593
:102AD000610509F03C5F3C5F3D93913008F08068F0
:102AE000911DDF93CF931F930F93FF92EF92192FB6
:102AF000987F9695E92F96959695E90FFF27E653CF
:102B0000FF4F99273327EE24FF24A701E701059003
:102B10000894079428F4360FE71EF81E491F511D2C
:102B2000660F771F881F991F0694A1F705900794D9
:102B300028F4E70EF81E491F561FC11D770F881F86
:102B4000991F661F0694A1F70590079428F4F80EC4
:102B5000491F561FC71FD11D880F991F661F771F5A
:102B60000694A1F70590079420F4490F561FC71F3C
:102B7000D81F990F661F771F881F0694A9F78491A5
:102B80001095177041F0D695C79557954795F794CE
:102B9000E7941A95C1F7E0E7F0E068941590159175
:102BA00035916591959105907FE27395E118F10A51
:102BB000430B560BC90BD009C0F7E10CF11E431FA4
:102BC000561FC91FD01D7EF4703311F48A95E6CFCD
:102BD000E894015030F0080F0AF40027021708F4B7
:102BE000202F2395022F7A3328F079E37D932A95BD
:102BF000E9F710C07D932A9589F606949795679515
:102C0000379517951794E118F10A430B560BC90B2A
:102C1000D00998F023957E9173957A3308F070E38C
:102C20007C932013B8F77E9170617D9330F083958B
:102C300071E37D9370E32A95E1F71124EF90FF9003
:102C40000F911F91CF91DF91992787FD909508955E
:102C5000FC010590615070400110D8F78095909567
:102C60008E0F9F1F0895FC0161507040019001106C
:102C7000D8F7809590958E0F9F1F08950F931F93FF
:102C8000CF93DF938C01EB018B8181FF1BC082FF0F
:102C90000DC02E813F818C819D812817390764F4F6
:102CA000E881F9810193F983E88306C0E885F98515
:102CB000802F0995892B31F48E819F8101969F8306
:102CC0008E8302C00FEF1FEFC801DF91CF911F91DC
:102CD0000F910895AEE0B0E0E0E7F6E10C94131533
:102CE0000D891E898F89988D97FF02C080E090E83A
:102CF00001979E838D831A83098386E08C839E01CE
:102D0000255E3F4FCE010196698D7A8DA9010E9403
:102D1000F90E4D815E8157FD0AC02F81388542171B
:102D200053070CF49A01020F131FF80110822E961C
:102D3000E4E00C942F15FA01AA27283051F1203134
:102D400081F1E8946F936E7F6E5F7F4F8F4F9F4F3F
:102D5000AF4FB1E03ED0B4E03CD0670F781F891F81
:102D60009A1FA11D680F791F8A1F911DA11D6A0F4F
:102D7000711D811D911DA11D20D009F468943F9102
:102D80002AE0269F11243019305D3193DEF6CF0101
:102D90000895462F4770405D4193B3E00FD0C9F7C7
:102DA000F6CF462F4F70405D4A3318F0495D31FD34
:102DB0004052419302D0A9F7EACFB4E0A695979587
:102DC000879577956795BA95C9F70097610571055D
:102DD00008959B01AC010A2E0694579547953795A7
:102DE0002795BA95C9F7620F731F841F951FA01D01
:062DF0000895F894FFCFE6
:102DF6005374617274696E6720636F6E74696E7561
:102E06006F75732077616C6C2D666F6C6C6F77696C
:102E16006E67206D6F6465005461726765743A2051
:102E26003620696E636865732066726F6D207269FD
:102E36006768742077616C6C005374617274757086
:102E46002052696768743A20252E3266696E0049F9
:102E56006E697469616C2072656164696E67204F82
:102E66004B2C207374617274696E672E2E2E005778
:102E7600616974696E6720666F722076616C696439
:102E86002072656164696E672E2E2E00523A2025E7
:102E96002E3266696E00426164207269676874202A
:102EA60072656164696E67210057616C6C206C6F96
:102EB6007374202D20746F6F206D616E79206261AE
:102EC600642072656164696E67732100454D4552E1
:102ED60047454E43593A20546F6F20636C6F7365B4
:102EE60020746F2077616C6C210057616C6C2074C4
:102EF6006F6F206661722C207365656B696E672E35
:102F06002E2E00463A20252E3266696E004F425319
:102F16005441434C4520617420252E3266696E214A
:102F26000041766F6964696E67206F6273746163CE
:102F36006C65202D207475726E696E67206C6566EF
:102F460074004166746572207475726E20463A206C
:102F5600252E3266696E005374696C6C20626C6F44
:102F6600636B65642C207475726E696E67206D6F75
:102F760072652E2E2E00526573756D696E67207709
:102F8600616C6C20666F6C6C6F77005365656B695E
:102F96006E672077616C6C202D2063757276696E82
:102FA60067207269676874005365656B696E672090
:102FB600523A20252E3266696E0057616C6C206687
:102FC6006F756E642100454D455247454E43592065
:102FD6002D206261636B696E67207570005475728F
:102FE6006E696E6720617761792066726F6D2077F2
:102FF600616C6C00416674657220636F7272656302
:1030060074696F6E20523A20252E3266696E005220
:1030160061772044697374616E63653A20256C7527
:103026002E2530326C7520696E009A99993EF0F71C
:08303600FB409A99993E5E01EE
:00000001FF
