:100000000C94B5000C94D2000C94D2000C940E0603
:100010000C94D2000C94D2000C94D2000C94A9043D
:100020000C94D2000C94D2000C94D2000C94D20008
:100030000C94D2000C94D2000C94D2000C94D200F8
:100040000C94D2000C94D2000C94D2000C94D200E8
:100050000C94D2000C94D2000C94D2000C94D200D8
:100060000C94D2000C94D2006E616E00696E660032
:1000700000407A10F35A00A0724E18090010A5D45F
:10008000E80000E87648170000E40B54020000CABC
:100090009A3B000000E1F505000080969800000002
:1000A00040420F000000A086010000001027000061
:1000B0000000E803000000006400000000000A00E7
:1000C000000000000100000000002C76D888DC67EA
:1000D0004F0823DFC1DFAE59E1B1B796E5E3E45342
:1000E000C63AE651997696E8E6C28426EB898C9B5F
:1000F00062ED407C6FFCEFBC9C9F40F2BAA56FA5FF
:10010000F490055A2AF75C936B6CF9676DC11BFC80
:10011000E0E40D47FEF520E6B500D0ED902E03009B
:10012000943577050080841E080000204E0A0000E8
:1001300000C80C333333330F986E12831141EF8DA7
:100140002114893BE65516CFFEE6DB18D1844B38E7
:100150001BF77C1D901DA4BBE424203284725E2218
:100160008100C9F124ECA1E53D2711241FBECFEF8A
:10017000D8E0DEBFCDBF11E0A0E0B1E0ECE7F4E2F3
:1001800002C005900D92A638B107D9F711E0A6E894
:10019000B1E001C01D92A739B107E1F70E940C023E
:1001A0000C943C120C94000080E090E040E050E0A1
:1001B00060E070E021E030E00E945A0681E090E0CB
:1001C00040E050E060E070E021E030E00E945A063C
:1001D0000895EF92FF920F931F937B018C0120E013
:1001E00030E040E050E00E944F0E88235CF40F2E78
:1001F000F0E0EF2EF0E0FF2EF0E00F2FF0E01F2FE9
:10020000F02D14C0C801B70120E030E040E85FE302
:100210000E94990F181654F40F2EF0E0EF2EF0E024
:10022000FF2EF0E80F2FFFE31F2FF02D80E090E06E
:10023000B801A7012FEF3FEF0E945A0681E090E03E
:10024000B801A70121E030E00E945A061F910F91EA
:10025000FF90EF900895AF92BF92CF92DF92EF920E
:10026000FF920F931F937B018C0159016A0120E0DB
:1002700030E040E050E00E944F0E88235CF40F2EE7
:10028000F0E0EF2EF0E0FF2EF0E00F2FF0E01F2F58
:10029000F02D14C0C801B70120E030E040E85FE372
:1002A0000E94990F181654F40F2EF0E0EF2EF0E094
:1002B000FF2EF0E80F2FFFE31F2FF02DC601B50131
:1002C00020E030E040E050E00E944F0E88235CF4D4
:1002D0000F2EF0E0AF2EF0E0BF2EF0E0CF2EF0E0DA
:1002E000DF2EF02D14C0C601B50120E030E040E85B
:1002F0005FE30E94990F181654F40F2EF0E0AF2E12
:10030000F0E0BF2EF0E8CF2EFFE3DF2EF02D80E0EF
:1003100090E0B801A70121E030E00E945A0681E098
:1003200090E0B601A50121E030E00E945A061F913D
:100330000F91FF90EF90DF90CF90BF90AF90089516
:100340008F929F92AF92BF92CF92DF92EF92FF92E5
:100350000F931F93CF93DF930F2EF0E0AF2EF0E0BB
:10036000BF2EF0E0CF2EF0E0DF2EF02D9924882470
:10037000C0E9D1E00E940F057B018C0120E030E054
:1003800040E050E00E94990F18169CF4C801B70194
:1003900026EF3AE74DE153E40E944F0E88234CF4D8
:1003A000C601B501A80197010E94EB0D5B016C012C
:1003B00093948AEF90E0FE013197F1F70197D9F716
:1003C000839483E08816B1F6992029F4E6EF7AE762
:1003D0008DE162E40EC0692D70E080E090E00E9443
:1003E000E70E9B01AC01C601B5010E94530EE62F3A
:1003F000692F2E2F372F482F562FB901CA01DF91B1
:10040000CF911F910F91FF90EF90DF90CF90BF9011
:10041000AF909F908F9008952F923F924F925F924E
:100420006F927F928F929F92AF92BF92CF92DF9204
:10043000EF92FF920F931F93DF93CF93CDB7DEB769
:10044000C054D0400FB6F894DEBF0FBECDBF0E949F
:100450004F060E9401050E946B070E949A0480E8E3
:1004600095E20E94940787E791E00E94830780E16C
:1004700097E220E931E0F9013197F1F70197D9F7D7
:1004800078940E94D40088E893E120E931E0F901F2
:100490003197F1F70197D9F7CC24DD2430E9632EA9
:1004A00031E0732E2E010894411C511C20E4222EB1
:1004B000312C90EA892E9FE0992EC114D10431F09D
:1004C00021E0C216D10409F027C280C00E94D400E6
:1004D00087E791E00E94830780ED97E0F301319771
:1004E000F1F70197D9F70E94A0017B018C018DB72C
:1004F0009EB70A970FB6F8949EBF0FBE8DBFEDB79B
:10050000FEB73196ADB7BEB712965C924E92119778
:100510003382228280E091E095838483E682F782B1
:10052000008711870E94AD11ADB7BEB71A960FB6FE
:10053000F894BEBF0FBEADBFC2010E94BF07C80185
:10054000B70120E030E040E251E40E944F0E8823E2
:100550000CF0E5C1C801B70120E030E040E050E018
:100560000E94990F18160CF0DAC18EE091E00E94FB
:10057000BF0763E373E383EB9EE30E94E90080E03F
:1005800090E0F4013197F1F70196B1E08C329B07CE
:10059000C1F70E94D40084EF91E0F3013197F1F7A5
:1005A0000197D9F76AE979E989E19EE39B01AC01FA
:1005B0000E942B0180E090E0F4013197F1F7019661
:1005C00086399105C9F70E94D400ACC186E990E054
:1005D0000E94830780ED97E0F3013197F1F70197CF
:1005E000D9F70E94A0017B018C0187E791E00E946E
:1005F000830788EE93E0F3013197F1F70197D9F77C
:100600008DB79EB70A970FB6F8949EBF0FBE8DBFE9
:10061000EDB7FEB73196ADB7BEB712965C924E926B
:1006200011973382228285E291E095838483E6826A
:10063000F782008711870E94AD11ADB7BEB71A9639
:100640000FB6F894BEBF0FBEADBFC2010E94BF0778
:10065000C801B70120E030E040E050E00E94990F6F
:10066000181644F5C801B70120E030E040EC50E432
:100670000E944F0E8823F4F483E391E00E94BF07A9
:1006800060E070E080E090E00E94E9006AE979E9CA
:1006900089E19EE32DEC3CEC4CE45EE30E942B01EF
:1006A00080E090E0F4013197F1F7019686399105E9
:1006B000C9F730C1C801B70120E030E040E751E49C
:1006C0000E94990F18160CF056C08DE491E00E941C
:1006D000BF0780E090E04DEC5CEC6CE47EE321E051
:1006E00030E00E945A0681E090E04DEC5CEC6CE456
:1006F0007EE32FEF3FEF0E945A0680E090E0F40186
:100700003197F1F7019686399105C9F70E94D40017
:1007100084EF91E0F3013197F1F70197D9F76AE996
:1007200079E989E19EE39B01AC010E942B0180E005
:1007300090E0F4013197F1F7019686399105C9F7F8
:100740000E94D40088EE93E0F3013197F1F701970E
:10075000D9F760E070E080E89EE39B01AC010E9465
:100760002B0180E090E0F4013197F1F70196883C8D
:100770009105C9F7CFC0C801B70120E030E040E2E1
:1007800051E40E94EA0D20E030E040E05FE30E9487
:100790009D0F7B018C016091860170918701809192
:1007A00088019091890120E030E040E05FE30E9401
:1007B0009D0F9B01AC01C801B7010E94EB0D609336
:1007C00086017093870180938801909389012FE8B7
:1007D00032EC45EF5CE30E949D0F7B018C012DEC18
:1007E0003CEC4CEC5DE30E94990F18165CF40F2E64
:1007F000FDECEF2EFCECFF2EFCEC0F2FFDE31F2F8A
:10080000F02D14C0C801B7012DEC3CEC4CEC5DEBB5
:100810000E944F0E882354F40F2EFDECEF2EFCECBB
:10082000FF2EFCEC0F2FFDEB1F2FF02D60E972EC7B
:1008300085EF9EE3A80197010E94EA0D5B016C0120
:10084000C801B70120E932EC45EF5EE30E94EB0DF1
:100850007B018C01C601B5012AE939E949E15EE372
:100860000E944F0E882354F40F2EFAE9AF2EF9E9B7
:10087000BF2EF9E1CF2EFEE3DF2EF02DC801B70128
:100880002AE939E949E15EE30E944F0E882354F4D6
:100890000F2EFAE9EF2EF9E9FF2EF9E10F2FFEE313
:1008A0001F2FF02DC601B5012AE939E949E15FE3BF
:1008B0000E94990F181654F40F2EFAE9AF2EF9E999
:1008C000BF2EF9E1CF2EFFE3DF2EF02DC801B701D7
:1008D0002AE939E949E15FE30E94990F181654F4B7
:1008E0000F2EFAE9EF2EF9E9FF2EF9E10F2FFFE3C2
:1008F0001F2FF02DC601B501A80197010E942B0101
:1009000080E090E0F4013197F1F70196B1E0843F87
:100910009B07C1F70E94D400CC24DD2403C081E0F2
:10092000C82ED12C88EE93E0F3013197F1F70197AF
:10093000D9F7C3CD82E08093B00084E08093B1000A
:1009400089EF8093B300E0E7F0E0808182608083EC
:1009500008951F920F920FB60F9211248F939F93B9
:10096000AF93BF9380918A0190918B01A0918C01EC
:10097000B0918D010196A11DB11D80938A019093C4
:100980008B01A0938C01B0938D01BF91AF919F918A
:100990008F910F900FBE0F901F9018958FB7F894FE
:1009A00020918A0130918B0140918C0150918D01F1
:1009B0008FBFB901CA0108951F932FB7F8946091B2
:1009C0008A0170918B0180918C0190918D01109121
:1009D000B2002FBF2AEF30E040E050E00E9400104C
:1009E0009B01AC01210F311D411D511D82E0220FE1
:1009F000331F441F551F8A95D1F7B901CA011F91B2
:100A00000895249A25982C98E8E6F0E0808181608A
:100A10008083EBE6F0E08081806280830895EF922E
:100A2000FF920F931F932C9A85E38A95F1F72C98E8
:100A30000E94DC047B018C0110928E010BC00E948D
:100A4000DC046E197F09800B910B61537547804060
:100A50009040B0F580918E01882389F360918F01D9
:100A60007091900180919101909192012091930158
:100A7000309194014091950150919601621B730B46
:100A8000840B950B0E94E70E28E23EE74CE05DE305
:100A90000E949D0F20E030E040E05FE30E949D0F48
:100AA0002CE53FE842E250E40E94530E7B018C01AA
:100AB00020E030E04DEB52E40E94990F181654F4F8
:100AC0000F2EF0E0EF2EF0E0FF2EF0E00F2FF0E021
:100AD0001F2FF02DB701C8011F910F91FF90EF90CC
:100AE0000895AF92BF92CF92DF92EF92FF920F9351
:100AF0001F93DF93CF93CDB7DEB7C054D0400FB66E
:100B0000F894DEBF0FBECDBF2C9A85E38A95F1F72E
:100B10002C988CE291E020E931E0F9013197F1F76E
:100B20000197D9F70E940F0520E030E048EC52E42D
:100B30000E949D0F0E94BB0E7B018C018DB79EB75A
:100B40000E970FB6F8949EBF0FBE8DBFCDB6DEB622
:100B50000894C11CD11C5E010894A11CB11CEDB706
:100B6000FEB7B282A18280E490E0F6019383828393
:100B70008FE591E095838483B701C80124E630E0D6
:100B800040E050E00E941F10F60126833783408723
:100B90005187B701C80124E630E040E050E00E94F0
:100BA0001F10F60162877387848795870E94AD11B5
:100BB0008DB79EB70E960FB6F8949EBF0FBE8DBF31
:100BC000C5010E94BF07C05CDF4F0FB6F894DEBFBF
:100BD0000FBECDBFCF91DF911F910F91FF90EF908E
:100BE000DF90CF90BF90AF9008950E94830780ED73
:100BF00097E020E931E0F9013197F1F70197D9F752
:100C00000E940F0588E592E020E931E0F901319773
:100C1000F1F70197D9F70E940F0508951F920F92DF
:100C20000FB60F9211242F933F934F935F936F93BF
:100C30007F938F939F93AF93BF93EF93FF931D9BEE
:100C40000BC00E94DC046093930170939401809325
:100C50009501909396010DC00E94DC0460938F0172
:100C600070939001809391019093920181E0809321
:100C70008E01FF91EF91BF91AF919F918F917F91E5
:100C80006F915F914F913F912F910F900FBE0F90F9
:100C90001F901895529A559A549A569A08950E9400
:100CA0004A0693E094BD84B5806A84BD95BD17BCA7
:100CB00018BC0895CF92DF92EF92FF920F931F938B
:100CC000CF93DF93EC017A018B016901CB01BA016B
:100CD00020E030E040E050E00E944F0E88235CF4BA
:100CE0000F2EF0E0EF2EF0E0FF2EF0E00F2FF0E0FF
:100CF0001F2FF02D14C0C801B70120E030E040E8FC
:100D00005FE30E94990F181654F40F2EF0E0EF2EB7
:100D1000F0E0FF2EF0E80F2FFFE31F2FF02DC801AA
:100D2000B70120E030E048E453E40E949D0F0E94A8
:100D3000BB0E693C08F068EC209749F468BD81E07F
:100D4000C816D10411F45A9A0CC05A980AC02197B7
:100D500041F467BD81E0C816D10411F45C9801C06C
:100D60005C9ADF91CF911F910F91FF90EF90DF90F0
:100D7000CF9008952F923F924F925F926F927F9201
:100D80008F929F92AF92BF92CF92DF92EF92FF929B
:100D90000F931F931B012C0139014A01C8010E94C6
:100DA000830780E293E020E931E0F9013197F1F720
:100DB0000197D9F70E940F058CE291E020E931E01C
:100DC000F9013197F1F70197D9F70E940F057B01DF
:100DD0008C0120E030E040E050E00E944F0E1816F9
:100DE00054F4C801B70124EF39EF4CE351E40E94F9
:100DF000990F181614F484017301C801B701A401F6
:100E000093010E94530E9B01AC01C201B1010E94EB
:100E10009D0F5B016C01C401B301A80197010E9401
:100E2000530E9B01AC01C201B1010E949D0F7B01D9
:100E30008C01C601B50120E030E040E85FE30E948C
:100E4000990F181654F40F2EF0E0AF2EF0E0BF2EDD
:100E5000F0E8CF2EFFE3DF2EF02DC801B70120E030
:100E600030E040E85FE30E94990F181654F40F2E0B
:100E7000F0E0EF2EF0E0FF2EF0E80F2FFFE31F2F42
:100E8000F02D80E090E0B601A50121E030E00E9465
:100E90005A0681E090E0B801A70121E030E00E940D
:100EA0005A0680E991E020E931E0F9013197F1F744
:100EB0000197D9F71F910F91FF90EF90DF90CF909E
:100EC000BF90AF909F908F907F906F905F904F906A
:100ED0003F902F900895229A83E280938000E1E86A
:100EE000F0E088E1808380818360808387E893E1FC
:100EF000909389008093880087E791E090938B001E
:100F000080938A000895863991051CF486E990E063
:100F100006C022E08237920714F081E792E09093B6
:100F20008B0080938A0008959C0140E050E060E4CB
:100F300072E48FE090E00E944110215030403093E5
:100F4000C5002093C40088E18093C1008EE08093A7
:100F5000C2000895982F8091C00085FFFCCF909328
:100F6000C6000895FC0107C08091C00085FFFCCF3A
:100F700031969093C60090819923B1F708950E940D
:100F8000B2078091C00085FFFCCF8DE08093C60042
:100F90008091C00085FFFCCF8AE08093C600089551
:100FA000EF92FF920F931F9380E090E040E050E0BB
:100FB00060E070E021E030E00E945A0681E090E0BD
:100FC00040E050E060E070E021E030E00E945A062E
:100FD00084EF91E020E931E0F9013197F1F70197D1
:100FE000D9F760917A0170917B0180917C01909199
:100FF0007D012AE939E949E95EE30E94EB0D7B01B5
:101000008C0180E090E0A701B8012FEF3FEF0E9434
:101010005A0681E090E0A701B80121E030E00E948B
:101020005A0688EB9BE020E931E0F9013197F1F7AE
:101030000197D9F780E090E040E050E060E070E098
:1010400021E030E00E945A0681E090E040E050E06C
:1010500060E070E021E030E00E945A061F910F919D
:10106000FF90EF900895409182015091830160912B
:1010700084017091850180E090E02FEF3FEF0E94A6
:101080005A064091820150918301609184017091D0
:10109000850181E090E02FEF3FEF0E945A0684E93E
:1010A00091E120E931E0F9013197F1F70197D9F7A2
:1010B00080E090E040E050E060E070E021E030E06F
:1010C0000E945A0681E090E040E050E060E070E06D
:1010D00021E030E00E945A0684EF91E020E931E0FF
:1010E000F9013197F1F70197D9F7409182015091B9
:1010F0008301609184017091850180E090E021E09E
:1011000030E00E945A064091820150918301609123
:1011100084017091850181E090E02FEF3FEF0E9404
:101120005A0688E893E120E931E0F9013197F1F7B7
:101130000197D9F781E090E040E050E060E070E096
:101140002FEF3FEF0E945A0680E090E040E050E031
:1011500060E070E02FEF3FEF0E945A0680ED97E0CD
:1011600020E931E0F9013197F1F70197D9F7409182
:10117000820150918301609184017091850180E02A
:1011800090E02FEF3FEF0E945A064091820150916C
:101190008301609184017091850181E090E02FEFDF
:1011A0003FEF0E945A0684E991E120E931E0F9011C
:1011B0003197F1F70197D9F781E090E040E050E0F6
:1011C00060E070E02FEF3FEF0E945A0680E090E071
:1011D00040E050E060E070E02FEF3FEF0E945A06E1
:1011E00080ED97E020E931E0F9013197F1F70197BF
:1011F000D9F7089540918201509183016091840153
:101200007091850180E090E021E030E00E945A0674
:101210004091820150918301609184017091850118
:1012200081E090E02FEF3FEF0E945A0688EB9BE0B1
:1012300020E931E0F9013197F1F70197D9F780E022
:1012400090E040E050E060E070E021E030E00E949B
:101250005A0681E090E040E050E060E070E021E07C
:1012600030E00E945A0688E893E120E931E0F90174
:101270003197F1F70197D9F740918201509183019D
:10128000609184017091850181E090E021E030E07F
:101290000E945A064091820150918301609184011D
:1012A0007091850180E090E021E030E00E945A06D4
:1012B00080E49FE120E931E0F9013197F1F70197EE
:1012C000D9F780E090E040E050E060E070E021E09D
:1012D00030E00E945A0681E090E040E050E060E09B
:1012E00070E021E030E00E945A0688E893E120E9AE
:1012F00031E0F9013197F1F70197D9F74091820177
:1013000050918301609184017091850180E090E0AB
:101310002FEF3FEF0E945A064091820150918301C6
:10132000609184017091850181E090E021E030E0DE
:101330000E945A0688EB9BE020E931E0F9013197E1
:10134000F1F70197D9F781E090E040E050E060E0EC
:1013500070E02FEF3FEF0E945A0680E090E040E0FF
:1013600050E060E070E02FEF3FEF0E945A0688E8FF
:1013700093E120E931E0F9013197F1F70197D9F7CD
:10138000089581E090E040E050E060E070E02FEFF1
:101390003FEF0E945A0680E090E040E050E060E0BD
:1013A00070E02FEF3FEF0E945A0688E893E120E9B2
:1013B00031E0F9013197F1F70197D9F740918201B6
:1013C00050918301609184017091850180E090E0EB
:1013D00021E030E00E945A06409182015091830141
:1013E000609184017091850181E090E02FEF3FEFE3
:1013F0000E945A0688EB9BE020E931E0F901319721
:10140000F1F70197D9F781E090E040E050E060E02B
:1014100070E02FEF3FEF0E945A0680E090E040E03E
:1014200050E060E070E02FEF3FEF0E945A0688E83E
:1014300093E120E931E0F9013197F1F70197D9F70C
:1014400040918201509183016091840170918501E6
:1014500081E090E021E030E00E945A064091820154
:1014600050918301609184017091850180E090E04A
:1014700021E030E00E945A0680E49FE120E931E05B
:10148000F9013197F1F70197D9F780E090E040E05A
:1014900050E060E070E021E030E00E945A0681E018
:1014A00090E040E050E060E070E021E030E00E9439
:1014B0005A0688E893E120E931E0F9013197F1F724
:1014C0000197D9F70895A1E1B0E0E9E6FAE00C94BC
:1014D0005C103C017F876E876A01FC0117821682CF
:1014E000838181FD03C06FEF7FEF6FC39E012F5F8C
:1014F0003F4F398B288BF3012381EE85FF8523FD38
:10150000859123FF8191FF87EE87882309F45AC3D1
:10151000853251F4EE85FF8523FD859123FF81916E
:10152000FF87EE87853229F490E0B3010E94811194
:10153000E2CF982F10E0882499241032B0F49B3227
:1015400069F09C3228F4903251F0933271F40BC060
:101550009D3239F0903349F4116028C01260146054
:1015600025C0186023C0106121C017FD2AC0892F33
:1015700080538A3078F416FF06C0FAE09F9E902CC4
:101580001124980E13C03AE0839E802C1124880EFB
:1015900010620CC09E3221F416FD14C3106406C004
:1015A0009C3611F4106802C0983659F4EE85FF8518
:1015B00023FD959123FF9191FF87EE87992309F0F1
:1015C000BCCF892F8554833020F4812F8061905EB9
:1015D00007C0892F8556833008F09FC1812F8F7EE9
:1015E00086FD02C076E0972E6FE3F62EF822953640
:1015F00019F4F0E4FF2A07C0963619F420E8F22A1D
:1016000002C091109A94F7FE0AC03BE3391518F412
:101610005CE3B52E02C0B92CB39427E009C047E0C3
:10162000491520F4BB2447E0942EF7CF292DBB2485
:10163000C60104969D878C87F60160817181828145
:101640009381AE014F5F5F4F0B2D0E9493106C0191
:101650000981202E332400FF04C003FD02C01DE2D7
:1016600009C0F1FE02C01BE205C0F2FC02C010E09E
:1016700001C010E2C1018C709070892BB9F1112367
:1016800011F483E001C084E0881510F088240AC0BA
:10169000881AF3FC07C080E290E0B3010E94811138
:1016A0008A94C9F7112329F0812F90E0B3010E9499
:1016B000811123FE03C008E610E00EC00CE610E026
:1016C0000BC0E114F10409F0805290E0B3010E94D4
:1016D00081110F5F1F4F05C0EF2CFF24F0E1EF22B7
:1016E000FF24F8018491882361F714C1F7FE12C02A
:1016F000BC0C24FE04C08A81813309F4BA941B1403
:101700001CF0BB24B3942DC0F8E0FB1550F538E075
:10171000B32E27C0F6FC25C0892D90E08C159D05C1
:101720004CF02CEFC2162FEFD20624F030E8F32A4B
:1017300001C09A94992049F0E2E0F0E0EC0FFD1F1F
:10174000E90DF11D80818033A1F3F7FE0AC0B92CA9
:10175000B394892D90E0C816D90614F0992401C0DD
:101760009C18F7FC03C025E030E009C01C141D04E0
:101770001CF021E030E003C096012F5F3F4F1123A2
:1017800011F02F5F3F4F992029F0892D90E00196AD
:10179000280F391F882D90E02817390714F0882466
:1017A00001C0821A4F2C5524C20189709070892B78
:1017B00039F008C080E290E0B3010E9481118A9460
:1017C0008820C1F7112329F0812F90E0B3010E94F6
:1017D000811143FE07C008C080E390E0B3010E947E
:1017E00081118A948820C1F7F7FE46C08601D7FE92
:1017F00002C000E010E076010894E11CF11CE01A40
:10180000F10A41E050E04C0F5D1FE40EF51E260189
:101810004B185108892D90E0AA24BB24A81AB90AB4
:101820005FEF0F3F150729F48EE290E0B3010E94AD
:101830008111C016D10634F0401651061CF4F70190
:10184000808101C080E3015010400894E11CF11C2C
:101850000A151B052CF090E0B3010E948111E0CF26
:101860000C151D0539F49A81963318F4953311F44B
:1018700024FE81E390E04BC08A81813309F00F7E22
:1018800090E0B3010E9481119920A1F08EE290E0D6
:10189000B3010E94811112E0E1E0F0E0EC0FFD1FC6
:1018A000E10FF11D1F5F808190E0B3010E94811163
:1018B0009A9491F744FC03C085E690E002C085E469
:1018C00090E0B3010E948111D7FC05C0C114D1047E
:1018D00041F404FF06C0D094C194D108D3948DE2A2
:1018E00001C08BE290E0B3010E94811180E305C04A
:1018F0008F5F26EF3FEFC20ED31E3AE0C316D1042E
:10190000BCF790E0B3010E948111C601C096B301FB
:101910000E948111CC84DD8452C1933631F093371B
:1019200099F0933509F059C023C0F601808189836D
:101930005E010894A11CB11C22E030E0C20ED31E4F
:1019400021E0E22EF12C12C0F601A080B18016FD3C
:1019500003C06FEF7FEF02C0692D70E022E030E03E
:10196000C20ED31EC5010E9476117C011F7713C0E1
:10197000F601A080B18016FD03C06FEF7FEF02C0BB
:10198000692D70E022E030E0C20ED31EC5010E9436
:101990006B117C01106813FF07C01BC080E290E050
:1019A000B3010E9481118A94882D90E0E816F9060F
:1019B000A8F30FC0F50117FD859117FF81915F0115
:1019C00090E0B3010E94811181108A940894E1088B
:1019D000F108E114F10471F7F2C0943611F0993670
:1019E00089F517FF08C0F6012081318142815381BA
:1019F00084E090E00AC0F601808191819C01442737
:101A000037FD4095542F82E090E0C80ED91E9FE626
:101A1000F92EF12257FF09C0509540953095219538
:101A20003F4F4F4F5F4F90E8F92ACA01B901AE010D
:101A30004F5F5F4F2AE030E00E94DE11E82EE88918
:101A4000EE1A41C0953721F41F7E2AE030E01CC019
:101A5000197F9F3661F0903720F4983509F0B2C0B5
:101A60000FC0903739F0983709F0ACC004C028E0B7
:101A700030E00AC0106114FD146020E130E004C0C1
:101A800014FD166020E132E017FF08C0F601608106
:101A900071818281938144E050E008C0F601808129
:101AA0009181BC0180E090E042E050E0C40ED51E80
:101AB000AE014F5F5F4F0E94DE11E82E5889E51A94
:101AC0008FE7F82EF122F6FE0BC08EEFF822E91414
:101AD00038F4F4FE07C0F2FC05C09FEEF92202C004
:101AE0001E2D01C0192DF4FE0DC0FE01EE0DF11DDD
:101AF0008081803319F4E9EEFE2208C01F5FF2FEF8
:101B000005C003C08F2D867809F01F5F0F2DF3FCF1
:101B100014C0F0FE0FC0181510F09E2C0BC09E2CA8
:101B2000980C911A182D06C080E290E0B3010E9433
:101B300081111F5F1815C0F304C0181510F4811A25
:101B400001C0882404FF0FC080E390E0B3010E942D
:101B5000811102FF1DC001FD03C088E790E00EC0A7
:101B600088E590E00BC0802F867891F001FF02C0DD
:101B70008BE201C080E2F7FC8DE290E0B3010E94AD
:101B8000811106C080E390E0B3010E9481119A9414
:101B9000E914C0F3EA94E1E0F0E0EC0FFD1FEE0D74
:101BA000F11D808190E0B3010E948111EE2091F738
:101BB00006C080E290E0B3010E9481118A948820DF
:101BC000C1F799CCF30166817781CB016196E2E19F
:101BD0000C9478105058BB27AA270ED070C161D141
:101BE00030F066D120F031F49F3F11F41EF456C15D
:101BF0000EF4E095E7FB4CC1E92F72D180F3BA17E0
:101C0000620773078407950718F071F49EF58AC17F
:101C10000EF4E0950B2EBA2FA02D0B01B901900107
:101C20000C01CA01A0011124FF27591B99F0593F4B
:101C300050F4503E68F11A16F040A22F232F342F93
:101C40004427585FF3CF469537952795A795F040E1
:101C50005395C9F77EF41F16BA0B620B730B840BF6
:101C6000BAF09150A1F0FF0FBB1F661F771F881FAE
:101C7000C2F70EC0BA0F621F731F841F48F4879506
:101C800077956795B795F7959E3F08F0B3CF9395F5
:101C9000880F08F09927EE0F979587950895D4D06F
:101CA00008F481E008950CD00AC102D140F0F9D0C7
:101CB00030F021F45F3F19F0EBC0511134C1EEC098
:101CC0000FD198F39923C9F35523B1F3951B550B05
:101CD000BB27AA2762177307840738F09F5F5F4FFF
:101CE000220F331F441FAA1FA9F333D00E2E3AF040
:101CF000E0E830D091505040E695001CCAF729D05A
:101D0000FE2F27D0660F771F881FBB1F26173707A8
:101D10004807AB07B0E809F0BB0B802DBF01FF27D8
:101D200093585F4F2AF09E3F510568F0B1C0FBC049
:101D30005F3FECF3983EDCF3869577956795B79512
:101D4000F7959F5FC9F7880F911D9695879597F92D
:101D50000895E1E0660F771F881FBB1F62177307A6
:101D60008407BA0720F0621B730B840BBA0BEE1FBB
:101D700088F7E0950895BCD088F09F5790F0B92F70
:101D80009927B751A0F0D1F0660F771F881F991FD0
:101D90001AF0BA95C9F712C0B13081F0C3D0B1E0E2
:101DA0000895C0C0672F782F8827B85F39F0B93FF2
:101DB000CCF3869577956795B395D9F73EF49095D2
:101DC0008095709561957F4F8F4F9F4F0895E89450
:101DD00009C097FB3EF490958095709561957F4F73
:101DE0008F4F9F4F9923A9F0F92F96E9BB27939521
:101DF000F695879577956795B795F111F8CFFAF431
:101E0000BB0F11F460FF1BC06F5F7F4F8F4F9F4F61
:101E100016C0882311F096E911C0772321F09EE8BF
:101E2000872F762F05C0662371F096E8862F70E025
:101E300060E02AF09A95660F771F881FDAF7880FFF
:101E40009695879597F90895990F0008550FAA0B55
:101E5000E0E8FEEF16161706E807F907C0F01216BD
:101E60001306E407F50798F0621B730B840B950BC0
:101E700039F40A2661F0232B242B252B21F4089515
:101E80000A2609F4A140A6958FEF811D811D0895B2
:101E900097F99F6780E870E060E008959FEF80EC1D
:101EA000089500240A9416161706180609060895C0
:101EB00000240A9412161306140605060895092E26
:101EC0000394000C11F4882352F0BB0F40F4BF2B95
:101ED00011F460FF04C06F5F7F4F8F4F9F4F0895D5
:101EE00057FD9058440F551F59F05F3F71F04795CB
:101EF000880F97FB991F61F09F3F79F087950895B0
:101F0000121613061406551FF2CF4695F1DF08C0CE
:101F1000161617061806991FF1CF869571056105EB
:101F200008940895E894BB2766277727CB0197F993
:101F300008958ADF08F48FEF08950BD0C0CFB1DF8A
:101F400028F0B6DF18F0952309F0A2CFA7CF11240F
:101F5000EACFC6DFA0F3959FD1F3950F50E0551F50
:101F6000629FF001729FBB27F00DB11D639FAA27EE
:101F7000F00DB11DAA1F649F6627B00DA11D661F3D
:101F8000829F2227B00DA11D621F739FB00DA11D5E
:101F9000621F839FA00D611D221F749F3327A00D18
:101FA000611D231F849F600D211D822F762F6A2FB4
:101FB00011249F5750408AF0E1F088234AF0EE0F39
:101FC000FF1FBB1F661F771F881F91505040A9F746
:101FD0009E3F510570F05CCFA6CF5F3FECF3983E7B
:101FE000DCF3869577956795B795F795E7959F5FAD
:101FF000C1F7FE2B880F911D9695879597F9089547
:10200000629FD001739FF001829FE00DF11D649FDC
:10201000E00DF11D929FF00D839FF00D749FF00D68
:10202000659FF00D9927729FB00DE11DF91F639F09
:10203000B00DE11DF91FBD01CF0111240895A1E2EA
:102040001A2EAA1BBB1BFD010DC0AA1FBB1FEE1F32
:10205000FF1FA217B307E407F50720F0A21BB30B7D
:10206000E40BF50B661F771F881F991F1A9469F7F9
:1020700060957095809590959B01AC01BD01CF0155
:10208000089597FB092E05260ED057FD04D0D7DF03
:102090000AD0001C38F450954095309521953F4F5B
:1020A0004F4F5F4F0895F6F7909580957095619525
:1020B0007F4F8F4F9F4F08952F923F924F925F9285
:1020C0006F927F928F929F92AF92BF92CF92DF9248
:1020D000EF92FF920F931F93CF93DF93CDB7DEB7AD
:1020E000CA1BDB0B0FB6F894DEBF0FBECDBF099441
:1020F0002A88398848885F846E847D848C849B8498
:10210000AA84B984C884DF80EE80FD800C811B81A5
:10211000AA81B981CE0FD11D0FB6F894DEBF0FBED4
:10212000CDBFED010895283008F027E03327DA010C
:10213000990F311D87FD916000966105710539F495
:1021400032602E5F3D9330E32A95E1F708959F3F7B
:1021500030F080387105610509F03C5F3C5F3D93CC
:10216000913008F08068911DDF93CF931F930F93F8
:10217000FF92EF92192F987F9695E92F9695969555
:10218000E90FFF27E653FF4F99273327EE24FF245B
:10219000A701E70105900894079428F4360FE71E7D
:1021A000F81E491F511D660F771F881F991F06943F
:1021B000A1F70590079428F4E70EF81E491F561F53
:1021C000C11D770F881F991F661F0694A1F7059000
:1021D000079428F4F80E491F561FC71FD11D880FFA
:1021E000991F661F771F0694A1F70590079420F4A6
:1021F000490F561FC71FD81F990F661F771F881FCB
:102200000694A9F784911095177041F0D695C7955B
:1022100057954795F794E7941A95C1F7E0E7F0E0F2
:1022200068941590159135916591959105907FE28F
:102230007395E118F10A430B560BC90BD009C0F78F
:10224000E10CF11E431F561FC91FD01D7EF47033D1
:1022500011F48A95E6CFE894015030F0080F0AF4A3
:102260000027021708F4202F2395022F7A3328F035
:1022700079E37D932A95E9F710C07D932A9589F635
:10228000069497956795379517951794E118F10A75
:10229000430B560BC90BD00998F023957E9173958B
:1022A0007A3308F070E37C932013B8F77E91706165
:1022B0007D9330F0839571E37D9370E32A95E1F788
:1022C0001124EF90FF900F911F91CF91DF919927EB
:1022D00087FD90950895FC010590615070400110B4
:1022E000D8F7809590958E0F9F1F0895FC0161503F
:1022F000704001900110D8F7809590958E0F9F1F28
:1023000008950F931F93CF93DF938C01EB018B8183
:1023100081FF1BC082FF0DC02E813F818C819D817A
:102320002817390764F4E881F9810193F983E88378
:1023300006C0E885F985802F0995892B31F48E81B7
:102340009F8101969F838E8302C00FEF1FEFC8010C
:10235000DF91CF911F910F910895AEE0B0E0E3EBD4
:10236000F1E10C946A100D891E898F89988D97FF71
:1023700002C080E090E801979E838D831A830983D1
:1023800086E08C839E01255E3F4FCE010196698DCC
:102390007A8DA9010E94630A4D815E8157FD0AC0B2
:1023A0002F813885421753070CF49A01020F131F2F
:1023B000F80110822E96E4E00C948610FA01AA2708
:1023C000283051F1203181F1E8946F936E7F6E5F78
:1023D0007F4F8F4F9F4FAF4FB1E03ED0B4E03CD026
:1023E000670F781F891F9A1FA11D680F791F8A1F09
:1023F000911DA11D6A0F711D811D911DA11D20D070
:1024000009F468943F912AE0269F11243019305D29
:102410003193DEF6CF010895462F4770405D41931A
:10242000B3E00FD0C9F7F6CF462F4F70405D4A3367
:1024300018F0495D31FD4052419302D0A9F7EACF2F
:10244000B4E0A6959795879577956795BA95C9F75E
:1024500000976105710508959B01AC010A2E069451
:102460005795479537952795BA95C9F7620F731F0A
:0C247000841F951FA01D0895F894FFCF55
:10247C0046726F6E743A20252E3266696E00416387
:10248C0074696F6E3A2061766F69645F6F62737402
:10249C0061636C650052696768743A20252E326658
:1024AC00696E00416374696F6E3A20636F72726576
:1024BC0063745F66726F6D5F77616C6C00416374FF
:1024CC00696F6E3A2066696E645F77616C6C00525E
:1024DC0061772044697374616E63653A20256C756D
:1024EC002E2530326C7520696E009A99993EF0F762
:0624FC00FB409A99993E95
:00000001FF
